:020000040010EA
:2000000000561028CD021000090310000D03100011031000150310001903100000000000BF
:20002000000000000000000000000000A170110021031000000000005971110067711100A6
:200040002D0310003103100035031000390310003D03100041031000450310004903100030
:200060000000000000000000000000004D03100051031000550310000000000059031000E8
:200080005D0310006103100065031000690310006D031000000000007103100075031000FC
:2000A000790310007D0310008103100000000000850310008903100000000000000000005C
:2000C0008D0310009103100095031000990310009D031000A1031000A5031000A9031000B0
:2000E000AD031000B1031000B5031000B9031000BD031000C1031000C5031000C903100090
:20010000CD031000D1031000D5031000D9031000DD031000E1031000E5031000E90310006F
:20012000ED031000F1031000F5031000F9031000FD0310000104100005041000090410004C
:200140000D0410001104100015041000190410001D04100021041000250410002904100027
:200160002D0410003104100035041000390410003D04100041041000450410004904100007
:200180004D0410005104100055041000590410005D041000610410006504100069041000E7
:2001A0006D0410007104100075041000790410007D041000810410008504100089041000C7
:2001C00010B5054C237833B9044B13B1044800E000BF0123237010BDB01C102800000000FC
:2001E000A8A0120008B5034B1BB10349034800E000BF08BD00000000B41C1028A8A0120071
:20020000154B002B08BF134B9D46A3F5803A00218B460F461348144A121A19F0C3FF0F4BA8
:20022000002B00D098470E4B002B00D098470020002104000D000D48002802D00C4800E0DC
:2002400000BF1FF0F1FA2000290000F01BF81FF0C5FA00BF00000800405710280000000035
:20026000C9041000B01C102854551028000000000000000080B500AF00F03AFC0023184631
:2002800080BD000080B500AFFFF7F4FF0346002B00D0FEE718F0A2FD00F022FF074B084ACF
:2002A0001A60064B1B68074A0021184618F060FC054801F031F918F0A3FDFEE7CC1C1028A7
:2002C0007B101000D80A1200B80A12000A490B4A0B4B9A42BEBF51F8040B42F8040BF8E7E4
:2002E000EFF3148040F0020080F31488054880F30988FFF785FF0000DCA0120000001028B6
:20030000B01C102840571028FFF7FEBFFFF7FEBFFFF7FEBFFFF7FEBFFFF7FEBF16F0C0BE07
:20032000FFF7FEBF16F018BF16F01DBFFFF7FEBFFFF7FEBFFFF7FEBFFFF7FEBFFFF7FEBFCC
:20034000FFF7FEBFFFF7FEBFFFF7FEBFFFF7FEBFFFF7FEBFFFF7FEBFFFF7FEBFFFF7FEBF05
:20036000FFF7FEBFFFF7FEBFFFF7FEBFFFF7FEBFFFF7FEBFFFF7FEBFFFF7FEBFFFF7FEBFE5
:20038000FFF7FEBFFFF7FEBFFFF7FEBFFFF7FEBFFFF7FEBFFFF7FEBFFFF7FEBFFFF7FEBFC5
:2003A000FFF7FEBFFFF7FEBFFFF7FEBFFFF7FEBFFFF7FEBFFFF7FEBFFFF7FEBFFFF7FEBFA5
:2003C000FFF7FEBFFFF7FEBFFFF7FEBFFFF7FEBFFFF7FEBFFFF7FEBFFFF7FEBFFFF7FEBF85
:2003E000FFF7FEBFFFF7FEBFFFF7FEBFFFF7FEBFFFF7FEBFFFF7FEBFFFF7FEBFFFF7FEBF65
:20040000FFF7FEBFFFF7FEBFFFF7FEBFFFF7FEBFFFF7FEBFFFF7FEBFFFF7FEBFFFF7FEBF44
:20042000FFF7FEBFFFF7FEBFFFF7FEBFFFF7FEBFFFF7FEBFFFF7FEBFFFF7FEBFFFF7FEBF24
:20044000FFF7FEBFFFF7FEBFFFF7FEBFFFF7FEBFFFF7FEBFFFF7FEBFFFF7FEBFFFF7FEBF04
:20046000FFF7FEBFFFF7FEBFFFF7FEBFFFF7FEBFFFF7FEBFFFF7FEBFFFF7FEBFFFF7FEBFE4
:20048000FFF7FEBFFFF7FEBFFFF7FEBF80B483B000AF7860FEE7000080B483B000AF786082
:2004A00039607B68013B042B0CD801A252F823F0C5041000C5041000C5041000C50410000D
:2004C000C504100000BFFEE780B500AF18F086FC00BF80BD80B58EB000AFF860B9607A60C8
:2004E0003B6007F1140324220021184619F05AFE01233B63BB68B3F1FF3F01D0BB68BB6254
:20050000FB687B613B6CFB6207F114031A463968786818F02DFB034618463837BD4680BD22
:2005200080B588B000AFF860B9607A6007F1100300221A605A609A60DA607B683B6107F148
:2005400010031A46B968F86817F054FC034618462037BD4680BD80B584B000AF7860396089
:200560003968786817F056FCF860FB68002B02D04FF0FF3300E0002318461037BD4680BD90
:2005800080B584B000AF7860786817F06DFCF860FB68002B02D04FF0FF3300E00023184691
:2005A0001037BD4680BD80B584B000AF7860786817F08AFCF860FB68002B02D04FF0FF332E
:2005C00000E0002318461037BD4680BD80B584B000AF00233B6002237B600023BB600023FC
:2005E000FB603B46184617F08BFD034618461037BD4680BD80B584B000AF78603960002358
:20060000FB607B68002B02D14FF0FF330BE03968786817F085FDF860FB68002B02D04FF041
:20062000FF3300E0002318461037BD4680BD80B584B000AF78600023FB607B68002B02D151
:200640004FF0FF330AE0786817F07AFDF860FB68002B02D04FF0FF3300E000231846103710
:20066000BD4680BD80B500AF18F092FA0346184680BD80B584B000AF78603960786818F06D
:200680009BFAF860FB68B3F1FF3F02D14FF0FF3303E0FA683B681A60002318461037BD46B7
:2006A00080BD80B500AF17F06FFD000080B500AF0349044800F05AF90346184680BD00BF44
:2006C00000001028FC0B120080B500AFFFF7EEFF0346184680BD000080B584B000AF78602E
:2006E0007B680C33FB60012000F030F9FB685B68002B12D0FB685B681946134800F00CFF35
:20070000FB689B68002B14D0FB689968FB68DB681A460E4800F000FF0BE0FB689B68002B39
:2007200007D0FB689968FB68DB681A46084800F0F3FE7B685B681946064800F0EDFE00BF5A
:200740001037BD4680BD00BF080C1200100C1200280C12003C0C120080B582B000AF786071
:20076000012000F0F3F87968034800F0D5FE00BF0837BD4680BD00BF540C120080B584B0B6
:2007800000AFF860B9607A603B603B68002B04D10948FFF7E1FF012309E03B68FA68DA60AE
:2007A0003B68BA685A603B687A689A60002318461037BD4680BD00BFD80C120080B584B015
:2007C00000AFF860B9607A603B603B68002B03D10948FFF7C1FF0BE03B6801221A703B68FD
:2007E000FA685A603B68BA689A603B687A68DA601037BD4680BD00BFF80C120080B586B098
:2008000000AF786000237B617B68002B03D07B681B68002B04D14548FFF79EFF012380E067
:200820007B681B68786898477B68DB68002B03D07B689B68002B04D13C48FFF78DFF01235F
:200840006FE0032000F082F87B68DB681946384800F062FE7B685B68FB6000233B613AE08D
:20086000FB681B68002B03D0FB685B68002B04D13048FFF771FF022353E0072000F066F8C3
:20088000FB685968FB689B681A462B4800F044FEFB6800221A73FB681B68FA680C321046DB
:2008A0009847FB681B7B012B06D1F868FFF714FF7B6901337B6108E0022000F047F8FB6864
:2008C0005B6819461D4800F027FEFB681C33FB603B6901333B617B689B683A699A42BFD304
:2008E0007B69002B09D1022000F030F8144800F013FE7B6800221A7412E0012000F026F8C4
:20090000104800F009FE032000F020F87B689B681A4679690C4800F0FFFD7B6801221A7461
:20092000002318461837BD4680BD00BFD80C12001C0D1200F80C1200380D1200640D1200C7
:200940007C0D1200900D1200A40D120080B582B000AF0346FB71FB791946034800F0DCFDD8
:2009600000BF0837BD4680BDEC0E120080B584B000AF786039600023FB720320FFF7E6FF16
:2009800079683A4800F0C8FD0023FB6014E0FA6813469B0013449B001A463B6813441846CD
:2009A000FFF72CFF0346FB72FB7A002B01D0FB7A57E0FB680133FB60FA6813469B001344A4
:2009C0009B001A463B6813441B68002BDFD10320FFF7BCFF7968264800F09EFD0023FB6098
:2009E0002CE00720FFF7B2FFFA6813469B0013449B001A463B681344DB6819461D4800F084
:200A00008BFDFA6813469B0013449B001A463B6813441B7C002B06D10220FFF797FF164807
:200A200000F07AFD07E00120FFF790FF134800F073FD0323FB72FB680133FB60FA681346C7
:200A40009B0013449B001A463B6813441B68002BC7D10320FFF77AFF7968094800F05CFD5C
:200A6000FB7A18461037BD4680BD00BFF40E1200280F12004C0F1200640F1200700F12007D
:200A80007C0F120080B584B000AF786039600F4B5B69396878689847F860FB68002B01D0FB
:200AA00000230EE000BF094BDB6A98470346DBB203F00103DBB2002BF5D1044B1B6A9847F0
:200AC000034618461037BD4680BD00BF2410120080B584B000AFF860B9607A607B6819463E
:200AE000B868FFF7CFFF034618461037BD4680BD80B582B000AF1A4B9B680020984778608F
:200B00007B68002B05D0174B174A5B2117481EF047FE134B1B690220984778607B68002B38
:200B200005D0104B104A5E2110481EF039FE0C4B9B6A4FF4E1310120984778607B68002B78
:200B400005D0084B084A622108481EF029FE044B9B6A01211520984700BF0837BD4680BD4B
:200B600024101200A00F120014101200B80F120080B483B000AF074B1B687B600023BA8834
:200B800062F30F03FA8862F31F4318460C37BD4680BC70472010120080B400AF002343F0A3
:200BA00001031846BD4680BC7047000080B582B000AF78607B681B68054A1268114618460B
:200BC00000F08CF9002318460837BD4680BD00BFE400102880B483B000AF78600B46FB701B
:200BE000FB78012B02DC002B03DA07E0022B03D004E06FF0030301E00023FFE718460C37B5
:200C0000BD4680BC704780B586B000AFF860B9607A60BB687B61BB68002B02D07B68002B4C
:200C200002D16FF004032BE0FB6800225A6018E000BFFB681B68184600F0E6F90346002BF3
:200C4000F7D0FB681A687B691B781946104600F0C0F9FB685B685A1CFB685A607B69013342
:200C60007B61FB685B687A689A42E1D100BFFB681B68184600F0C8F90346002BF7D00023F0
:200C800018461837BD4680BD80B586B000AFF860B9607A60BB687B61BB68002B02D07B6800
:200CA000002B02D16FF0040320E0FB6800229A6016E000BFFB681B68184600F0C4F9034662
:200CC000002BF7D0FB681B687969184600F065F9FB689B685A1CFB689A607B6901337B6181
:200CE000FB689B687A689A42E3D1002318461837BD4680BD80B483B000AF78607B685B6878
:200D000018460C37BD4680BC704780B483B000AF78607B689B6818460C37BD4680BC7047D1
:200D200080B584B000AFF860B9607A60BB68DBB2012B0BD1FB681B687968184600F0FDF88E
:200D40000346002B05D06FF007031CE06FF0030319E000BFBB6803F4E063002B02D06FF00F
:200D6000030310E0BB6803F44053002B02D06FF0090308E0BB6803F44043002B02D06FF087
:200D80000A0300E0002318461037BD4680BD000080B582B000AF7860054A7B68D3600448BF
:200DA000FFF704FF034618460837BD4680BD00BFC800102880B400AF00231846BD4680BCB2
:200DC0007047000080B582B000AF0346FB71FB7919460448FFF7FEFE034618460837BD4697
:200DE00080BD00BFC800102880B582B000AF786039603A6879680448FFF705FF0346184600
:200E00000837BD4680BD00BFC800102880B582B000AF786039603A6879680448FFF734FF15
:200E2000034618460837BD4680BD00BFC800102880B485B000AFF860B9607A606FF0030305
:200E400018461437BD4680BC7047000080B500AF0248FFF74FFF0346184680BDC80010289D
:200E600080B500AF0248FFF750FF0346184680BDC800102880B582B000AF786039603A68F2
:200E800079680448FFF74CFF034618460837BD4680BD00BFC800102880B483B000AF0023C6
:200EA0007B607B6818460C37BD4680BC704780B483B000AF0346FB716FF0030318460C370C
:200EC000BD4680BC704780B483B000AF00237B607B6818460C37BD4680BC704780B485B025
:200EE00000AF786039607B681B681B68FB603B68002B01D101231BE07B685B683A685A60CD
:200F00007B681A687B685B6852689A607B685B685A687B681B685B68B2FBF3F2FB681A6111
:200F2000FB6803229A607B685B6801221A60002318461437BD4680BC704780B485B000AF12
:200F4000786039607B681B681B68FB603B68002B01D102231CE07B685B681B6803F00103FB
:200F6000002B01D1032313E07B685B685A683B68B2FBF3F3BB607B685B683A689A60BB683D
:200F80000F2B01D8022303E0FB68BA681A61002318461437BD4680BC704780B485B000AF5C
:200FA000786039607B681B681B68FB60FB685B6803F00203002B01D1042305E0FB681B686F
:200FC000DAB23B681A70002318461437BD4680BC704780B485B000AF78600B46FB707B6807
:200FE0001B681B68FB60FB685B6803F00103002B01D0042303E0FA78FB681A60002318469D
:201000001437BD4680BC704780B485B000AF78607B681B681B68FB607B685B681B6803F03F
:201020000103002B01D1002308E0FB685B6803F00103002B0CBF01230023DBB21846143714
:20104000BD4680BC704780B485B000AF78607B681B681B68FB607B685B681B6803F0010346
:20106000002B01D1002303E0FB685B6803F0020318461437BD4680BC704780B582B000AF9A
:20108000786000F043F8FFF71FFBFEE790B587B000AFF860B9607A603B6000BF0F4B1B68AB
:2010A0004FF0FF311846FFF7A5FA0346002BF5D1FC68BB6A3A687968B868A047786100BFE9
:2010C000064B1B681846FFF7B2FA0346002BF7D17B6918461C37BD4690BD00BF28401028BC
:2010E00080B582B000AFFFF771FA78607B68002B02D14FF0FF3303E0034A7B6813600023A6
:2011000018460837BD4680BD2840102880B500AF00230022002100201FF0AEFC00231846AE
:2011200080BD80B582B000AF78600B46FB707B681B68591C7A6811607A681344FA781A7164
:201140007B681B681F2B08D97B6800221A607B68043320211846FFF795FC00BF0837BD463E
:2011600080BD80B584B000AF786039600023FB600AE03B685A1C3A601B7819467868FFF7C6
:20118000D0FFFB680133FB603B681B78002BF0D1FB6818461037BD4680BD000080B58AB0B5
:2011A00000AFF860B9601346FB7100237B6200233B6107F1140300221A605A60BB683B6266
:2011C0000023FB61FB79642B0CD1BB68002B09DA2D21F868FFF7A5FF7B6A01337B62BB681E
:2011E0005B423B62396A1A4BA3FB0123DA0813469B0013445B00CA1AD2B2FB69591CF961C8
:201200003032D2B207F128010B4403F8182C3B6A0F4AA2FB0323DB083B623B6A002BE1D176
:201220000EE0FB69013BFB6107F11002FB6913441B781946F868FFF774FF7B6A01337B624E
:20124000FB69002BEDD17B6A18462837BD4680BDCDCCCCCC80B58AB000AFF860B9607A60C5
:2012600000237B6200237B6107F1180300221A605A6000233B62BB6803F00F037A681A44DE
:201280003B6A591C3962127807F128010B4403F8142CBB681B09BB60BB68002BEBD10EE00A
:2012A0003B6A013B3B6207F114023B6A13441B781946F868FFF735FF7B6A01337B623B6A8F
:2012C000002BEDD17B6A18462837BD4680BD000080B58CB000AF786039600023FB6200230F
:2012E000BB60F8E07B681B78252B40F0E7807B6801337B607B681B78252B00F0C680252B60
:20130000C0F2CD80782B00F3CA80582BC0F2C780583B202B00F2C38001A252F823F000BFA0
:20132000FF1310009F1410009F1410009F1410009F1410009F1410009F1410009F14100036
:201340009F1410009F1410009F1410006D141000A51310009F1410009F1410009F141000A2
:201360009F141000A51310009F1410009F1410009F1410009F1410009F1410009F14100050
:201380001D1410009F1410009F1410004F1410009F141000C31310009F1410009F141000E4
:2013A000E11310003B681A1D3A60196807F1080364221846FFF7F2FE0246FB6A1344FB6206
:2013C00078E03B681A1D3A60196807F1080375221846FFF7E3FE0246FB6A1344FB6269E047
:2013E0003B681A1D3A60196807F10803464A1846FFF730FF0246FB6A1344FB625AE03B68A4
:201400001A1D3A60196807F10803404A1846FFF721FF0246FB6A1344FB624BE007F10803EA
:201420003B491846FFF79DFE0246FB6A1344FB623B681A1D3A60196807F10803324A184606
:20144000FFF708FF0246FB6A1344FB6232E03B681A1D3A601A6807F1080311461846FFF778
:2014600080FE0246FB6A1344FB6223E03B681A1D3A601B68DAB207F1080311461846FFF759
:2014800050FEFB6A0133FB6214E007F1080325211846FFF746FEFB6A0133FB620AE007F15B
:2014A00008031C491846FFF75CFE0246FB6A1344FB6210E07B6801337B600CE07B685A1C86
:2014C0007A601A7807F1080311461846FFF729FEFB6A0133FB627B681B78002B7FF402AF10
:2014E000BB68002B0BD0BA6807F10803043311461846FFF7C7FA0246FB6A1344FB62FB6A35
:2015000018463037BD4680BD641012007410120084101200881012000FB480B582B000AF81
:2015200000237B6007F114033B6039683869FFF7CFFE78607B6818460837BD46BDE880403E
:2015400004B0704780B584B000AF78600923FB607B68FA6803490448FFF710F900BF1037C7
:20156000BD4680BDE8001028C012120080B586B000AF786040F2E9333B6107F11003BB6025
:201580000423FB6007F108000023002201211FF053FA78617B69002B06D07B689522054960
:2015A0000548FFF70BF902E07B6800221A701837BD4680BDF81212006413120080B485B0D6
:2015C00000AF786039600023FB600023FB601AE0FB68DB007A68134400225A60FB68DB0064
:2015E0007A68134400221A60FB68DB003A68134400225A60FB68DB003A68134400221A6030
:20160000FB680133FB60FB68032BE1D900BF00BF1437BD4680BC704780B485B000AF7860DE
:2016200039600023FB600023FB601DE0FB68DB007A68134408225A60FB68DA00FB68DB0042
:2016400079680B4479680A441A60FB68DB003A68134420225A60FB68DB003A6813443A68A5
:201660001A60FB680133FB60FB68032BDED900BF00BF1437BD4680BC7047000080B598B07A
:2016800000AF786007F13C0320220021184618F089FD07F11C0320220021184618F082FDDE
:2016A00007F10C0300221A605A609A60DA6007F11C0207F13C0311461846FFF77FFF002300
:2016C000FB6000233B6100237B610023BB6107F10C0319467C4800F039FCF865FB6D012B72
:2016E00006D07B68F02279497948FFF767F8E8E007F11C0207F13C0311461846FFF78CFFFC
:2017000007F13C03FB6002233B6107F11C037B613B69C3F10403BB6107F10C0319466A48F0
:2017200000F014FCF865FB6D012B07D07B684FF4817266496748FFF741F8C2E007F11C0283
:2017400007F13C0311461846FFF766FF07F13C03FB6002233B6107F11C037B610123BB61BC
:2017600007F10C031946584800F0F0FBF865FB6D012B07D07B684FF48A7254495648FFF76D
:201780001DF89EE007F11C0207F13C0311461846FFF742FF00237B6207F13C03FB600223C6
:2017A0003B6107F11C037B610123BB6107F10C031946454800F0CAFBF865FB6D012B07D0EA
:2017C0007B684FF4977241494448FEF7F7FF78E007F11C0207F13C0311461846FFF71CFF6E
:2017E00000233B6507F13C03FB6002233B6107F11C037B610123BB6107F10C0319463248C0
:2018000000F0A4FBF865FB6D012B07D07B6840F243122E493148FEF7D1FF52E007F11C020A
:2018200007F13C0311461846FFF7F6FE0023BB6400237B6407F13C03FB6002233B6107F143
:201840001C037B610223BB6107F10C0319461E4800F07CFBF865FB6D012B07D07B6840F23C
:2018600057121A491E48FEF7A9FF2AE007F11C0207F13C0311461846FFF7CEFE0023BB628B
:2018800000237B6207F13C03FB6002233B6107F11C037B610223BB6107F10C0319460A4809
:2018A00000F054FBF865FB6D012B07D07B6840F26B1206490B48FEF781FF02E07B68002291
:2018C0001A706037BD4680BDC9FB0610F8121200A0131200CC131200F81312003414120084
:2018E0006C141200A414120080B5A8B000AF7860694A07F1900392E8030018600433197085
:20190000664A07F1840307CA03C31A800233120C1A7007F1500320220021184618F042FC38
:2019200007F190033B6505237B6507F18403BB650B23FB6507F1300320220021184618F053
:2019400031FC07F17C033B6305237B6307F17003BB630B23FB634FF47E73FB6207F150034E
:20196000FB6102233B6207F130037B620223BB6207F15003FB6001233B6100237B61002377
:20198000BB6107F11C031946454800F0DFFAC7F89800D7F89830002B07D07B6840F28D12BB
:2019A00040494148FEF70AFF73E07B6B022B02D1FB6B052B07D07B6840F2931239493B48B2
:2019C000FEF7FCFE65E00123C7F89C301CE03A6BD7F89C30D90F0B445B1013441A7807F165
:2019E0009001D7F89C300B441B789A4207D07B684FF4CC722B492E48FEF7E0FE49E0D7F80D
:201A00009C300233C7F89C30D7F89C30042BDED90123C7F89C301CE0BA6BD7F89C30D90F66
:201A20000B445B1013441A7807F18401D7F89C300B441B789A4207D07B684FF4CF7219498D
:201A40001B48FEF7BBFE24E0D7F89C300233C7F89C30D7F89C300A2BDED907F12C033B65C8
:201A600004237B6507F10C031946124800F06EFAC7F89800D7F89830002B07D07B6840F242
:201A8000AF1208490C48FEF799FE02E07B6800221A70A037BD4680BD801512008815120076
:201AA000F1F80610F8121200E0141200101512004415120041F906105C15120080B588B023
:201AC00000AF786007F10C0300221A605A609A60DA6007F10C0319460A4800F037FAF861BC
:201AE000FB69002B07D07B6840F29A2206490748FEF764FE02E07B6800221A702037BD46EF
:201B000080BD00BF69F90610F812120094151200B0B5A6B000AF78604A4B07F178041D46CC
:201B20000FCD0FC495E8030084E8030007F1380340220021184618F035FB01237B6307F1C1
:201B40007803FB6218233B6307F13803FB6140233B6207F134037B620423BB6207F12C03CE
:201B6000FB6001233B6107F11C037B610223BB6107F10C031946344800F0E8F9C7F8900014
:201B8000D7F89030002B07D07B6840F2C5222F492F48FEF713FE52E07B6B002B44D1002348
:201BA000C7F894301FE0D7F894309B0007F19802134453F8602CD7F894309B0007F19801F6
:201BC0000B4453F8203CDB439A4207D07B6840F2CB221E491F48FEF7F1FD30E0D7F89430E8
:201BE0000133C7F89430D7F89430052BDBD916E0D7F894309B0007F19802134453F8603CC3
:201C0000002B07D07B6840F2D12210491248FEF7D5FD14E0D7F894300133C7F89430D7F833
:201C200094300F2BE4D907E07B6840F2D62207490A48FEF7C3FD02E07B6800221A7098375E
:201C4000BD46B0BD5C16120031F90610F8121200B8151200E8151200141612003C161200A6
:201C600080B58AB000AF78604FF47C733B6207F12003BB610423FB6107F11803BB60012393
:201C8000FB6000233B6100237B6107F1080319460A4800F05BF978627B6A002B07D07B688F
:201CA00040F2EE2206490748FEF788FD02E07B6800221A702837BD4680BD00BF41F90610AB
:201CC000F812120074161200B0B5A8B000AF7860614B07F180041D460FCD0FC495E803004E
:201CE00084E8030007F1400340220021184618F059FA0623FB6307F140037B634023BB63DD
:201D000040F2F2333B6307F13003BB610423FB6107F180033B6218237B6207F13C03BB6280
:201D20000423FB6207F11803BB600323FB6007F134033B6101237B6107F1080319464748B4
:201D400000F004F9C7F89800D7F898300933092B76D801A252F823F0111E1000211E10005C
:201D6000311E1000411E1000411E1000411E1000411E1000411E1000411E1000811D1000BC
:201D80000023C7F89C301FE0D7F89C309B0007F1A002134453F8602CD7F89C309B0007F16A
:201DA000A0010B4453F8203CDB439A4207D07B6840F211322A492B48FEF700FD48E0D7F894
:201DC0009C300133C7F89C30D7F89C30052BDBD916E0D7F89C309B0007F1A002134453F891
:201DE000603C002B07D07B6840F217321C491E48FEF7E4FC2CE0D7F89C300133C7F89C30E1
:201E0000D7F89C300F2BE4D97B6800221A701FE07B6840F21E3212491448FEF7CFFC17E0CF
:201E20007B6840F221320E491148FEF7C7FC0FE07B684FF449720A490E48FEF7BFFC07E0C2
:201E40007B6840F2273206490B48FEF7B7FC00BFA037BD46B0BD00BF5C16120041F9061031
:201E6000F8121200E81512001416120098161200BC161200D81612003C16120080B58AB084
:201E800000AF786040F2F5333B6207F12003BB610423FB6107F11803BB600123FB6000233A
:201EA0003B6100237B6107F1080319460A4800F04DF878627B6A002B07D07B6840F237325F
:201EC00006490748FEF77AFC02E07B6800221A702837BD4680BD00BF41F90610F8121200BE
:201EE0007416120080B58AB000AF786040F2F6333B6207F12003BB610423FB6107F118038B
:201F0000BB600123FB6000233B6100237B6107F1080319460A4800F019F878627B6A002BCA
:201F200007D07B6840F24E3206490748FEF746FC02E07B6800221A702837BD4680BD00BF91
:201F400041F90610F81212000817120090B583B000AF786039603B6818683B6859683B6822
:201F60009A683B68DB687C68A047034618460C37BD4690BD80B584B000AF78600523FB6001
:201F80007B68FA6803490448FEF7F8FB00BF1037BD4680BDE4011028B018120080B584B0D6
:201FA00000AF786000F0E4F9F860FB68002B0AD0F9680848FFF7B0FA7B68492206490748D0
:201FC000FEF7FCFB02E07B6800221A701037BD4680BD00BF0019120020191200A01912001D
:201FE00080B584B000AF786000F014FAF860FB68002B0AD0F9680848FFF78EFA7B685B22A4
:2020000006490748FEF7DAFB02E07B6800221A701037BD4680BD00BFC81912002019120063
:20202000F019120080B584B000AF786000F02AFEF860FB68002B0AD0F9680848FFF76CFAB0
:202040007B68702206490748FEF7B8FB02E07B6800221A701037BD4680BD00BF201A1200C2
:2020600020191200501A120080B584B000AF786000F010FEF860FB68002B0AD0F96808483A
:20208000FFF74AFA7B68882206490748FEF796FB02E07B6800221A701037BD4680BD00BF9E
:2020A000881A120020191200B01A120080B588B002AF78604FF400737B6107F10C03009323
:2020C0007B69174A2121174817F074FF38613B6913F1870F06D07B68A52213491348FEF79D
:2020E0006DFB19E010237B6107F10C0300937B690B4A40210B4817F05DFF38613B6913F145
:202100008A0F06D07B68B22207490948FEF756FB02E07B6800221A701837BD4680BD00BFF3
:202120002C4010282017120020191200E41A12001C1B120080B483B000AF3B4683E8030009
:202140003B68002B0CBF01230023DBB218460C37BD4680BC704782B090B587B002AFF860C4
:20216000381D80E806007B62FC686A4607F1240393E8030082E8030000233A1D06CA2046F1
:202180001AF0CAF9F8681437BD46BDE8904002B0704780B48DB000AFF860381D80E80600AB
:2021A0003B60BB683A689A4204D90023BB620023FB6211E07B68002B06D1BA683B68D31ABE
:2021C0000022BA62FB6207E07A683B681A44B9683B68CB1ABA62FB62FB681A4607F1280392
:2021E00093E8030082E80300F8683437BD4680BC704780B582B000AF3B4683E803003B46AD
:2022000093E80300FFF796FF034618460837BD4680BD82B080B586B002AFF860381D80E82C
:202220000600FB61F8683B6A0093FB693A1D06CAFFF791FFF8681037BD46BDE8804002B0D2
:20224000704780B584B000AFF860381D80E806003B60F8683B683A1D06CAFFF79AFFF868E0
:202260001037BD4680BD90B585B000AF07F1080484E80300394681E80C003B460CCB07F1F7
:20228000080103C91AF075F9034618461437BD4690BD80B584B000AF07F1080383E8030026
:2022A0001346FB71FB791A4607F1080393E803001AF081F9034618461037BD4680BD82B020
:2022C00080B5A0B002AFF860381D80E80600C7F8843007F12403FB6140233B62BB68402B31
:2022E0001AD100223B1D93E80300FFF7D2FF0346002B11D007F16400BB6800937B6807F1F2
:202300001C0206CAFFF785FFFB6907F10C010422184617F0E8FE06E007F164033A1D92E865
:20232000030083E80300D7F888307B67786EB96ED7F8842007F16C0300937B6F17F03AFE20
:202340003867D7F88410FA6ED7F88C301960D7F88C305A603B6F002B01D03B6F00E0002377
:2023600018467837BD46BDE8804002B07047000080B5CCB002AF0023C7F8243107F16C037F
:202380007B66B623BB6607F11403184640231A46002117F007FF07F10C0307F114021A6075
:2023A00007F10C0340225A6007F10C0207F15C030193BB6E00937B6E06CA4FF04040FFF7DF
:2023C0007EFFC7F82401D7F82431002B16D1104A07F1540392E8030083E8030007F1540383
:2023E0000CCB07F15C0103C9FFF73DFF0346002B06D06FF00203C7F8243102E000BF00E070
:2024000000BFD7F82431184607F59477BD4680BD581B120080B59AB000AF00237B6607F185
:20242000100340220021184617F0BCFE07F110033B6540237B65104A07F1580392E80300CF
:2024400083E803007B6D07F160021146184617F0D9FD7866FA6D3B6E9A4204D83B6E42F2B7
:202460001072934202D94FF0FF337B667B6E18466837BD4680BD00BF581B120080B5A8B0E1
:2024800000AF78600023C7F89C307B681B6C03F00103002B04D16FF03103C7F89C305EE149
:2024A00007F1080340220021184617F07BFE07F10803C7F888304023C7F88C3007F18803DD
:2024C00093E80300FFF795FE0346002B3CD1796807F188030CCB03C9FFF7C5FE0346002B40
:2024E00032D007F180007A68042306CAFFF7A9FE7B685B68402B22D1002207F1800393E8D0
:202500000300FFF7C6FE0346B3F1FF3F17D107F19000042307F1880206CAFFF792FE07F16C
:2025200080030CCB07F1900103C9FFF79CFE0346002B09D06FF03203C7F89C300FE16FF0A1
:202540003203C7F89C300AE17B681B6C03F00203002B04D16FF03303C7F89C30FFE000234C
:20256000C7F888300023C7F88C3007F1880393E80300FFF73EFE0346002B0FD1796807F1E6
:2025800088030CCB083103C9FFF76DFE0346002B04D06FF03403C7F89C30E0E07B681B6CE0
:2025A00003F00403002B04D16FF03503C7F89C30D5E00023C7F888300023C7F88C3007F11A
:2025C000880393E80300FFF714FE0346002B0FD1796807F188030CCB103103C9FFF743FE17
:2025E0000346002B04D06FF03603C7F89C30B6E07B681B6C03F00803002B1CD00023C7F879
:202600009830D7F89830002B15D00023C7F888300323C7F88C30796807F188030CCB18318C
:2026200003C9FFF720FE0346002B04D06FF03803C7F89C3093E07B681B6C03F01003002B3F
:2026400004D16FF03903C7F89C3088E00023C7F888300023C7F88C3007F1880393E80300DE
:20266000FFF7C7FD0346002B0FD1796807F188030CCB203103C9FFF7F6FD0346002B04D0C3
:202680006FF03A03C7F89C3069E07B681B6C03F04003002B04D16FF03B03C7F89C305EE0C4
:2026A0007B681B6C03F02003002B04D16FF03D03C7F89C3053E07B68DB6A002B08D07B682F
:2026C000DB6A002B04DB6FF03E03C7F89C3046E07B681B6C03F08003002B1CD00023C7F881
:2026E0009830D7F89830002B15D00023C7F888300323C7F88C30796807F188030CCB303194
:2027000003C9FFF7B0FD0346002B04D06FF04003C7F89C3023E07B681B6C03F48073002B53
:202720001DD00023C7F89830D7F89830002B15D00023C7F888300323C7F88C30796807F147
:2027400088030CCB383103C9FFF78DFD0346002B05D06FF04203C7F89C3000E000BFD7F87C
:202760009C301846A037BD4680BD000080B590B000AF78600023FB637B689B6A03F00103BC
:20278000002B16D00023BB63BB6B002B11D000233B6303237B63796807F130030CCB03C941
:2027A000FFF761FD0346002B03D06FF06403FB638FE07B689B6A03F00203002B03D16FF0AD
:2027C0006503FB6385E000233B6300237B6307F1300393E80300FFF70CFD0346002B0ED111
:2027E000796807F130030CCB083103C9FFF73BFD0346002B03D06FF06603FB6369E07B682A
:202800009B6A03F00803002B03D16FF06903FB635FE00023BB63BB6B002B12D000233B6319
:2028200003237B63796807F130030CCB103103C9FFF719FD0346002B03D06FF06A03FB6327
:2028400047E07B689B6A03F02003002B03D16FF06B03FB633DE000233B6300237B6307F152
:20286000300393E80300FFF7C4FC0346002B0ED1796807F130030CCB183103C9FFF7F3FCC1
:202880000346002B03D06FF06C03FB6321E07B689B6A03F04003002B1BD0104BBB63BB6BF1
:2028A000002B15D00E4A07F1300392E8030083E80300796807F130030CCB203103C9FFF7A4
:2028C000D2FC0346002B04D06FF06E03FB6300E000BFFB6B18464037BD4680BD501B12001D
:2028E000601B120080B590B000AF78600023FB637B689B6A03F00103002B16D00023BB639D
:20290000BB6B002B11D000233B6303237B63796807F130030CCB03C9FFF7A5FC0346002B06
:2029200003D06FF06403FB638FE07B689B6A03F00203002B03D16FF06503FB6385E00023A5
:202940003B6300237B6307F1300393E80300FFF750FC0346002B0ED1796807F130030CCBB7
:20296000083103C9FFF77FFC0346002B03D06FF06603FB6369E07B689B6A03F00803002B1A
:2029800003D16FF06903FB635FE00023BB63BB6B002B12D000233B6303237B63796807F1E9
:2029A00030030CCB103103C9FFF75DFC0346002B03D06FF06A03FB6347E07B689B6A03F03E
:2029C0002003002B03D16FF06B03FB633DE000233B6300237B6307F1300393E80300FFF72C
:2029E00008FC0346002B0ED1796807F130030CCB183103C9FFF737FC0346002B03D06FF0B9
:202A00006C03FB6321E07B689B6A03F04003002B1BD0104BBB63BB6B002B15D00E4A07F1B5
:202A2000300392E8030083E80300796807F130030CCB203103C9FFF716FC0346002B04D028
:202A40006FF06E03FB6300E000BFFB6B18464037BD4680BD501B1200601B120080B5ADF54D
:202A6000567D02AF0246FB1D1A7007F1E80307F1F0021A6007F1E8034FF414725A60FB1D23
:202A80001B78032B2AD801A252F823F09D2A1000AF2A1000BD2A1000CB2A10004FF0004335
:202AA000C7F848334FF00043C7F844331AE00023C7F848330023C7F8443313E00023C7F89F
:202AC00048330023C7F844330CE04FF00043C7F848334FF00043C7F8443303E0684BC7F86D
:202AE0004C33C6E007F11403184640231A46002117F058FB07F1540307F114021A6007F137
:202B0000540340225A6007F1E80307F1540207F1E0010191596800911B6806CAD7F84803E7
:202B2000FFF7CDFBC7F84C03D7F84C33002B40F08F8007F1D003D7F84413184600F0B2F828
:202B400007F1E00307F1D00093E8060000F096FC0346C7F84C33D7F84C33002B7AD107F18C
:202B60008C0207F1D0031146184600F0AFF80346C7F84C33D7F84C33002B6DD107F18C03EB
:202B80001846FFF77BFCC7F84C03D7F84C33002B64D107F15C0207F1D0031146184600F0E8
:202BA0001FFA0346C7F84C33D7F84C33002B57D107F15C031B68C7F84033D7F84033002B5B
:202BC00004DA6FF00403C7F84C3352E007F15C031B68002B38D007F1600207F1D0030021EE
:202BE000184600F02FFB0346C7F84C33D7F84C33002B37D107F160031846FFF7B7FDC7F833
:202C00004C03D7F84C33002B2ED107F15C031B68012B19D907F1600207F1D0030121184650
:202C200000F010FB0346C7F84C33D7F84C33002B1CD107F160031846FFF754FEC7F84C039D
:202C4000D7F84C33002B13D10023C7F84C3310E000BF0EE000BF0CE000BF0AE000BF08E01E
:202C600000BF06E000BF04E000BF02E000BF00E000BFD7F84C33184607F55477BD4680BD5A
:202C800018FCFFFF80B500AF0020FFF7E7FE0346184680BD80B500AF0120FFF7DFFE03463E
:202CA000184680BD80B582B000AF7860396010220021786817F076FA7B683A689A607B68E6
:202CC00010221A7300BF0837BD4680BD80B5ADF51A7D00AF3B1D18603B4619603B46442229
:202CE0000021186817F05EFA07F17801B34A4FF0FF33C1E9002307F17801B14A4FF0FF334B
:202D0000C1E90C2307F17801AE4A4FF0FF33C1E9182307F17801AC4A4FF0FF33C1E9242352
:202D200007F17801A94A4FF0FF33C1E9302307F17801A74A4FF0FF33C1E93C2307F1780174
:202D4000A44A4FF0FF33C1E9482307F17801A24A4FF0FF33C1E9542307F178019F4A4FF077
:202D6000FF33C1E9602307F178014FF000024FF00003C1E96C233B1D1B681B7B002B05D056
:202D80003B1D1B681B7B87F8673210E13B1D1A6807F10C00002306CA18F090FA07F17802E4
:202DA00007F10C031146184619F0CBFD034687F8673297F86732002B40F0F68007F17803B9
:202DC0001B7A062B10D13B461A6807F17803103393E8030082E803003B461B681B6C43F0EA
:202DE00001023B461B681A6407F1780393F83830062B11D13B461B6807F1780208334032B2
:202E000092E8030083E803003B461B681B6C43F002023B461B681A6407F1780393F86830ED
:202E2000062B11D13B461B6807F178021033703292E8030083E803003B461B681B6C43F07B
:202E400004023B461B681A6407F1780393F89830072B11D13B461B6807F178021833A0327D
:202E600092E8030083E803003B461B681B6C43F008023B461B681A6407F1780393F8C83027
:202E8000062B11D13B461B6807F178022033D03292E8030083E803003B461B681B6C43F0AB
:202EA00010023B461B681A6407F1780393F8F830022B25D107F17803D3E94023C7E996233A
:202EC000D7E996236FF000404FF0000182428B4109DBD7E996234FF000404FF0FF319042ED
:202EE00071EB03030CDAD7F858223B461B68DA623B461B681B6C43F020023B461B681A649F
:202F000007F1780393F82831022B1AD107F17803D3E94C236FF001004FF00001904271EBD6
:202F200003030EDB07F17803D3E94C233B461B689A623B461B681B6C43F040023B461B6800
:202F40001A6407F1780393F85831072B12D13B461B6807F17802303302F5B07292E80300E8
:202F600083E803003B461B681B6C43F080023B461B681A6407F1780393F88831072B15D152
:202F80003B461B6807F17802383302F5C87292E8030083E803003B461B681B6C43F4807280
:202FA0003B461B681A6402E000BF00E000BF97F86732184607F51A77BD4680BD00DBFEFF24
:202FC000FFDAFEFF04DBFEFF03DBFEFF05DBFEFF07DBFEFF06DBFEFF08DBFEFFFEDAFEFF15
:202FE00080B590B002AF786039607B681B7B002B04D07B681B7B87F8373046E0796807F164
:20300000080300930423244A03C919F094FD034687F8373097F83730002B29D097F83730D8
:20302000112B31D1796807F10803009302231B4A03C919F080FD034687F8373097F83730DA
:20304000002B0DD1D7E90423002B08BF012A03D13B6800221A6018E0122387F8373014E049
:2030600097F83730112B10D1122387F837300CE03B8A002B03D1122387F8373005E03B8AAD
:203080001A463B681A6000E000BF97F8373018463837BD4680BD00BF02DBFEFF01DBFEFF9F
:2030A000B0B592B000AFF860B9607A60BB681B78052B03D0062387F84730BDE02C2200218B
:2030C000786817F06FF8002387F8473007F118031946F86819F004F8034687F8463097F8E5
:2030E0004630002B03D0052387F84730A4E0BB7E022B40F08980D7E90C2312F1FF3443F1C2
:20310000FF35002D08BF062C7FD2052C7DD801A353F824F02D311000593110000B32100026
:2031200085311000B1311000DD3110003B7E072B03D0072387F847307EE07B681A4607F142
:20314000200393E8030082E803007B689B6A43F001027B689A6258E03B7E062B03D0072345
:2031600087F8473068E07B68083307F1200292E8030083E803007B689B6A43F002027B68EC
:203180009A6242E03B7E072B03D0072387F8473052E07B68103307F1200292E8030083E8D9
:2031A00003007B689B6A43F008027B689A622CE03B7E062B03D0072387F847303CE07B6820
:2031C000183307F1200292E8030083E803007B689B6A43F020027B689A6216E03B7E072BA2
:2031E00003D0072387F8473026E07B68203307F1200292E8030083E803007B689B6A43F080
:2032000040027B689A6200E000BF07F1140207F118031946F86819F056FB0346002B03D06D
:20322000052387F8473007E0BB685B791A467B699A4200D84AE700BF97F8473018464837C7
:20324000BD46B0BD80B5B8B000AFF860B9607A60FB681B7B002B04D0FB681B7B87F8DF30E8
:2032600060E0FA6807F13C00002306CA18F026F807F1A80207F13C032D49184619F0D3FBDB
:20328000034687F8DF3097F8DF30002B49D197F8A830042B03D0072387F8DF3042E097F8A2
:2032A000AD30C7F8D83007F1100207F13C031146184618F015FF034687F8D73097F8D730F3
:2032C000002B03D0052387F8DF302BE07B7D1A46D7F8D830934203D3112387F8DF3021E092
:2032E000BB68002B0BD107F1100107F13C037A681846FFF7D5FE034687F8DF3012E0BB686F
:20330000013BBB6007F1100107F13C030022184619F0D9FA0346002BC5D0052387F8DF30FB
:2033200000E000BF97F8DF301846E037BD4680BD02DBFEFF80B483B000AF0346FB71FB7982
:20334000252B6BD801A252F823F000BFE5331000E93310001D341000ED3310001D341000D5
:203360001D3410001D3410001D3410000D341000F1331000053410001534100015341000AA
:2033800009341000153410001D341000F53310001D341000F9331000193410001934100097
:2033A00015341000093410001D341000FD331000013410001D3410001D3410001D3410005E
:2033C0001D341000053410001D3410001D3410001D3410001D3410001D3410001D341000FD
:2033E0001134100000231AE00B2318E0042316E0052314E00C2312E00D2310E002230EE0A8
:2034000001230CE006230AE00A2308E0092306E0092304E0092302E00F2300E003231846AE
:203420000C37BD4680BC704780B487B000AF786039607B683A681A617B681A4600231360EF
:2034400053609360D36000BF1C37BD4680BC704782B090B482B000AF786007F1100181E8EA
:203460000C007B681C4607F110030FCB84E80F0000BF0837BD4690BC02B0704790B597B059
:2034800002AFF8603B1D83E806000023FB64FB689B68002B03DAFB6C43F00103FB6407F175
:2034A0002803F96C1846FFF7BFFF07F11403184600F086F8B864BB6C002B01D00F233AE004
:2034C00002233B767B691A464FF00003C7E9082307F128046A4607F1200393E8030082E8DE
:2034E000030007F118030CCB2046FFF7B1FFFB6807F12800002200923A1D06CA1AF040FB30
:20350000034687F8473097F847301846FFF712FF034687F84630FB6897F846201A737B69FA
:20352000184600F0A7F8B864BB6C002B01D0032301E097F8463018465437BD4690BDB0B4B6
:2035400089B000AF786007F10C0300221A605A609A60DA601A617B681D4607F10C040FCC76
:203560000FC523682B6078682437BD46B0BC704780B483B000AF786039607B683A68DA60BA
:2035800000BF0C37BD4680BC704780B483B000AF786039607B683A681A6100BF0C37BD46A7
:2035A00080BC704780B483B000AF78600B467B807B687A881A8000BF0C37BD4680BC704767
:2035C00080B59CB000AF786007F158031846FFF7B6FF00237B6107F118033D220021184697
:2035E00016F0E0FD214B1B68002B01D0052339E007F10F0307F1100207F11400412116F034
:203600001FFDF866FB6E002B01D005232AE007F158034FF400511846FFF7AAFF07F1580362
:2036200013491846FFF7B1FFFB7B1BB243F482431BB29AB207F1580311461846FFF7B2FF23
:203640003A6907F1140107F158007B6815F026FFF866FB6E002B01D0052303E0034B01221E
:203660001A60002318467037BD4680BD2C4210280906000680B584B000AF78600B4B1B68E4
:20368000012B01D005230CE0786815F03BFFF860FB68002B01D0052303E0044B00221A604D
:2036A000002318461037BD4680BD00BF2C42102880B584B000AF78600123FB607B68FA68E9
:2036C00003490448FDF75AF800BF1037BD4680BD70021028501C120080B59EB002AF786092
:2036E00007F1100207F10C031146184615F0D2FCB866BB6E002B06D07B686022A349A448AC
:20370000FDF75CF83EE13B69382B06D07B6865229E49A048FDF752F834E1FB68022B06D073
:203720007B686A2299499C48FDF748F82AE10023FB661DE007F110031946F86E15F0C8FCFB
:20374000B866BB6E002B06D07B6872228F499348FDF734F816E13B691C2B06D07B687722A3
:203760008A498F48FDF72AF80CE1FB6E0133FB66FB68FA6E9A42DDD3FB6807F11002114683
:20378000184615F0A5FCB866BB6E002B06D17B687F227E498348FDF711F8F3E00023FB6672
:2037A0002AE0FA6E1346DB009B1A9B001A4607F11403134407F108020192009300230022E0
:2037C0005021F86E15F03CFCB866BB6E002B06D07B6890226D497448FCF7F0FFD2E0BB68CF
:2037E0001C2B06D07B68952268497048FCF7E6FFC8E0FB6E0133FB66FB6E012BD1D907F1F4
:203800000803019307F114030093002300221421002015F015FCB866BB6E002B06D17B688B
:20382000A8225A496248FCF7C9FFABE0BB68002B06D07B68AD2255495E48FCF7BFFFA1E0DF
:2038400007F10803019307F114030093002300221C21012015F0F4FBB866BB6E002B06D050
:203860007B68BC2249495048FCF7A8FF8AE0BB681C2B06D07B68C12244494F48FCF79EFF9F
:2038800080E007F1140310337B667B6E5B684B4A934206D07B68CC223C494948FCF78EFF42
:2038A00070E000220021002015F032FCB866BB6E002B06D07B68D32234494248FCF77EFF8B
:2038C00060E007F1100207F10C031146184615F0E1FBB866BB6E002B06D07B68DA222B4966
:2038E0002B48FCF76BFF4DE0FB68012B06D07B68DF2226493448FCF761FF43E03B691C2B36
:2039000006D07B68E42221493048FCF757FF39E000220021002015F0FBFBB866BB6E002BD4
:2039200006D07B68EB2219492648FCF747FF29E007F1100207F10C031146184615F0AAFB3F
:20394000B866BB6E002B06D07B68F2220F491048FCF734FF16E0FB68002B06D07B68F722FC
:203960000A491B48FCF72AFF0CE03B69002B06D07B68FC2205491548FCF720FF02E07B6861
:2039800000221A707037BD4680BD00BF8C1C1200F81C12001C1D1200401D1200641D1200A8
:2039A000981D1200CC1D1200081E1200301E1200501E1200841E1200A01E12002700CDAB0A
:2039C000BC1E1200E41E1200101F1200481F1200741F120080B584B000AF78601923FB6001
:2039E0007B68FA6803490448FCF7C8FE00BF1037BD4680BD8C0210285426120080B582B032
:203A000000AF786079684FF4105000F041FA00BF0837BD4680BD000080B582B000AF786044
:203A20007A6804494FF4105000F02EFB00BF0837BD4680BD0011C00480B582B000AF78609A
:203A40007A6804494FF4105000F01EFB00BF0837BD4680BD0010C00480B582B000AF78608B
:203A60007B68102204494FF4105000F0F3FD00BF0837BD4680BD00BF0900800380B582B071
:203A800000AF7860786801F08BFC00BF0837BD4680BD000080B582B000AF78607B68102206
:203AA00004494FF4885000F0D5FD00BF0837BD4680BD00BF0011C00480B582B000AF78601C
:203AC0007968034800F03EFE00BF0837BD4680BD0500000280B582B000AF7860796803482F
:203AE00000F054FE00BF0837BD4680BD0800000280B582B000AF78607968034800F046FEEE
:203B000000BF0837BD4680BD0900000280B582B000AF78607968034800F038FE00BF08371E
:203B2000BD4680BD0A00000280B582B000AF78607968034800F02AFE00BF0837BD4680BDC9
:203B40000B00000280B582B000AF78607A6804494FF4885000F05AFF00BF0837BD4680BD99
:203B60000500800380B582B000AF78607A680021034800F0BDFF00BF0837BD4680BD00BFD8
:203B80000900800380B582B000AF78607A680021034800F0ADFF00BF0837BD4680BD00BFC4
:203BA0000A00800380B582B000AF78607A680021034800F09DFF00BF0837BD4680BD00BFB3
:203BC0000B00800380B582B000AF78607A680121034800F08DFF00BF0837BD4680BD00BFA1
:203BE0000800800380B582B000AF78607A6804494FF4105001F02EFA00BF0837BD4680BD23
:203C00000001500580B582B000AF78607A6804494FF4105001F01EFA00BF0837BD4680BD47
:203C20000002500580B582B000AF7860786801F001FC00BF0837BD4680BD80B582B000AF1D
:203C40007860786801F07AFC00BF0837BD4680BD80B582B000AF78607968012001F06AFDBF
:203C600000BF0837BD4680BD80B584B000AF7860054BFB607A68F9684FF4105001F0EAF9B1
:203C800000BF1037BD4680BD0001480580B582B000AF78607968034801F018FE00BF083771
:203CA000BD4680BD0902000880B582B000AF78607968034801F00AFE00BF0837BD4680BD60
:203CC0000903000880B582B000AF78607968034801F0FCFD00BF0837BD4680BD090100087C
:203CE00080B483B000AF00237B607B6818460C37BD4680BC704780B483B000AF00237B6022
:203D00007B6818460C37BD4680BC704780B483B000AF00237B607B6818460C37BD4680BC52
:203D2000704780B483B000AF00237B607B6818460C37BD4680BC7047B0B489B000AF78601A
:203D400007F10C0300221A605A609A60DA601A617B681D4607F10C040FCC0FC523682B6044
:203D600078682437BD46B0BC704780B485B000AF786039607B685B68FB607B683A689A60D9
:203D8000FB68DBB2002B06D1FB681B0A1B0243F001027B685A6000BF1437BD4680BC7047B9
:203DA00080B483B000AF78607B685B6818460C37BD4680BC704780B483B000AF7860396051
:203DC0007B683A68DA6000BF0C37BD4680BC704780B483B000AF78607B68DB6818460C3777
:203DE000BD4680BC704780B483B000AF786039607B683A681A6100BF0C37BD4680BC70474E
:203E000080B483B000AF78607B681B6918460C37BD4680BC704780B483B000AF78600B4677
:203E20007B807B687A881A8000BF0C37BD4680BC704780B483B000AF78607B681B8818463E
:203E40000C37BD4680BC704780B483B000AF786039603B684FF6F872934204D97B684FF676
:203E6000FF725A8003E03B689AB27B685A8000BF0C37BD4680BC704780B483B000AF786082
:203E80007B685B8818460C37BD4680BC7047000090B599B000AF03463960FB800023BB65E8
:203EA0000023FB6500237B656C4B07F144040FCB84E80F0000237B6307F1380300221A6060
:203EC0005A609A6000233B6307F11C031846FFF733FF07F108031846FFF72EFF07F11C0335
:203EE00001211846FFF767FFFA8807F11C0311461846FFF790FF07F1540307F1440107F18F
:203F00001C00102215F0CAFAB865BB6D002B06D03B68222252495348FCF750FC9AE07B6D86
:203F200007F108021146184615F012FBB865BB6D002B06D03B68282249494B48FCF73EFC33
:203F400088E007F108031846FFF796FF0346802B06D03B682D2242494448FCF72FFC79E0C3
:203F600007F108031846FFF764FF03461A46FB88934206D03B68322239493D48FCF71EFCA5
:203F800068E007F10803184615F00CFB786D07F1300307F13401102215F02AFBB865BB6D8E
:203FA000002B06D03B683E222D493248FCF706FC50E03B6B102B06D03B68432228492E4842
:203FC000FCF7FCFB46E00023FB6515E007F13402FB6D13441A7807F14401FB6D0B441B7853
:203FE0009A4206D03B684A221D492448FCF7E6FB30E0FB6D0133FB653B6BFA6D9A42E5D3AD
:204000007B6D184615F07EFAB865BB6D002B06D03B68512212491A48FCF7D0FB1AE07B6D24
:2040200007F108021146184615F092FAB865BB6D13F1880F06D03B68572209491148FCF7C8
:20404000BDFB07E007F10803184615F0ABFA3B6800221A706437BD4690BD00BFA4281200DF
:20406000F4261200502712006827120084271200B8271200E827120000281200382812006F
:20408000642812008028120090B5B3B002AF0346B9607A60FB81FFF739FE0346C7F8A430AE
:2040A000FFF734FE0346C7F8A0300023C7F8BC30C44B07F18C040FCB84E80F00FB8903F4CB
:2040C000E043B3F5005F08D1FB891B0A9BB203F00703012202FA03F300E00023C7F8B03033
:2040E000B94B07F17C040FCB84E80F00B74B07F16C040FCB84E80F000023FB6407F1500363
:2041000000221A605A609A60DA601A615A619A610023BB640023C7F8B8300023BB6207F1A0
:204120002C0300221A605A609A60DA601A615A619A6107F114031846FFF7FEFD4FF4407341
:20414000C7F8AC307B6800221A7007F11403D7F8AC101846FFF72FFE07F11403B96818468C
:20416000FFF741FEFA8907F1140311461846FFF752FE07F19C0307F18C0107F11400102223
:2041800015F08CF9C7F8BC00D7F8BC30002B06D07B6889228E498F48FCF710FB32E2D7F841
:2041A0009C3007F114021146184615F0D1F9C7F8BC00D7F8BC30002B06D07B688F22844909
:2041C0008548FCF7FBFA1DE207F114031846FFF753FE0346802B06D07B6894227C497F4888
:2041E000FCF7ECFA0EE207F114031846FFF721FE03461A46FB89934206D07B689922744941
:204200007748FCF7DBFAFDE107F11403184615F0C9F9D7F89C1007F1A403BA68184615F066
:2042200049FAC7F8BC00D7F8BC30002B12D0D7F8BC3013F1860F06D17B68A32264496948C7
:20424000FCF7BCFADEE17B68A52261496648FCF7B5FAD7E107F17C0107F1A403D7F8B020E7
:20426000184615F0F5F9C7F8BC00D7F8BC30002B18D07B68AD2256495C48FCF79FFA07F12B
:20428000A403184615F0B4FAC7F8BC00D7F8BC30002B00F0A6817B68B0224D495448FCF714
:2042A0008DFA9EE107F1280207F16C0107F1A40007F148030193202300931346102215F098
:2042C0005DFAC7F8BC00D7F8BC30002B18D07B68BB223F494748FCF771FA07F1A40318460C
:2042E00015F086FAC7F8BC00D7F8BC30002B00F07A817B68BE2236493D48FCF75FFA72E187
:20430000BB6C102B18D07B68C42231493A48FCF755FA07F1A403184615F06AFAC7F8BC006B
:20432000D7F8BC30002B00F060817B68C72228492F48FCF743FA58E1BB6C07F12802D11877
:20434000BB6CC3F1200207F1480307F1A40015F07BFAC7F8BC00D7F8BC30002B18D07B68DB
:20436000D2221B492548FCF729FA07F1A403184615F03EFAC7F8BC00D7F8BC30002B00F0D7
:2043800036817B68D52212491948FCF717FA2EE1BB6C002B06D07B68DB220D491848FCF70C
:2043A0000DFA2FE1BB68174A93422DD1D7F89C1007F1A003BA68184615F07CF9C7F8BC0004
:2043C0002CE000BFA4281200D42A1200E42A1200F4261200502712006827120084271200F1
:2043E000B8271200B4281200E428120010291200442912006429120090291200CC29120085
:20440000F42912000011C004D7F89C1007F1A003BA68184615F080F9C7F8BC00D7F8BC304E
:20442000002B06D07B68E82281498248FCF7C6F9E8E007F17C0107F1A003D7F8B020184673
:2044400015F006F9C7F8BC00D7F8BC30002B18D07B68EF2276497848FCF7B0F907F1A00365
:20446000184615F0C5F9C7F8BC00D7F8BC30002B00F0BF807B68F2226D497048FCF79EF99C
:20448000B7E00023C7F8B43043E007F12802D7F8B430D11807F14C02D7F8B830D418D7F826
:2044A000B830C3F1200307F1A00007F14802019200932346102215F061F9C7F8BC00D7F8F9
:2044C000BC30002B1AD07B684FF4807258495C48FCF774F907F1A003184615F089F9C7F8DF
:2044E000BC00D7F8BC30002B00F085807B6840F203124F495148FCF761F97CE0BB6CD7F82B
:20450000B8201344C7F8B830D7F8B4301033C7F8B430D7F8B4301F2BB7D907F14C0107F162
:204520006C031022184615F0AFFD0346C7F8A830D7F8A830002B19D07B684FF489723C498A
:204540004048FCF73BF907F1A003184615F050F9C7F8BC00D7F8BC30002B4ED07B6840F2D1
:20456000151233493548FCF729F946E007F1480307F14C0107F1A000102215F065F9C7F86C
:20458000BC00D7F8BC30002B19D07B6840F21F1227492D48FCF712F907F1A003184615F069
:2045A00027F9C7F8BC00D7F8BC30002B27D07B684FF491721E492148FCF700F91FE0BB6C78
:2045C000D7F8B8201344C7F8B830D7F8B830202B17D07B6840F22B1215491C48FCF7EEF860
:2045E00010E000BF0EE000BF0CE000BF0AE000BF08E000BF06E000BF04E000BF02E000BF7B
:2046000000E000BFD7F89C30184614F07BFFC7F8BC00D7F8BC30002B06D07B6840F23312F3
:2046200003490B48FCF7CAF800BFC437BD4690BDF4261200E4281200202A120044291200F7
:20464000442A12005C2A1200CC2912008C2A1200BC2A120080B59EB000AFB9607A603B60BB
:204660000346FB81FFF752FB0346FB6607F114031846FFF761FB4FF440737B6707F11403E2
:20468000796F1846FFF797FB07F11403B9681846FFF7A9FBFA8907F1140311461846FFF7E7
:2046A000BAFB07F128037A684121184615F07AFD07F1680307F1280107F114007A6814F08E
:2046C000EDFE38673B6F002B07D03B6840F2531218491948FCF772F829E0B96E07F16C03B4
:2046E000BA68184614F0E6FF38673B6F002B0BD13B684FF4AD720F491048FCF75FF8BB6ED9
:20470000184614F0FFFE12E0BB6E184614F0FAFE38673B6F002B07D03B684FF4B172054923
:204720000748FCF74BF802E03B6800221A707837BD4680BDF426120050271200F42A1200EF
:20474000BC2A120080B584B000AF786039600023BB6007F108037968184615F0ABF8F86058
:20476000FB6813F1860F07D03B684FF4B97205490548FCF723F802E03B6800221A70103734
:20478000BD4680BDF4261200242B120080B58AB000AF78603960854A07F1140392E8030062
:2047A00083E80300824A07F10C0392E8030083E8030002233B62FFF793FA0346BB6007F12C
:2047C00008037968184615F075F8F861FB69002B13D0FB6913F1860F07D13B6840F2B112E5
:2047E00074497548FBF7EAFFDDE03B6840F2B51270497248FBF7E2FFD5E000237B6221E00F
:204800007B6A9B0007F12802134453F8141C7B6A9B0007F12802134453F81C2C07F1080395
:20482000184615F075F8F861FB69002B07D03B684FF4DF725F496248FBF7C0FFB3E07B6A37
:2048400001337B627A6A3B6A9A42D9D300237B6202E07B6A01337B625A4A7B6A52F8233038
:204860007A689A42F5D17B6A9B01574A99187B68DBB243F00073554A93427FD07B68DBB298
:2048800043F00073524A934276D07B68DBB243F00073504A93426DD07B68DBB243F00073E3
:2048A0004D4A934264D07B68DBB243F000734B4A93425BD07B68DBB243F00073484A934230
:2048C00052D07B68DBB243F00073464A934249D07B68DBB243F00073434A934240D07B68B7
:2048E000DBB243F00073414A934237D07B68DBB243F000733E4A93422ED07B68DBB243F00A
:2049000000733C4A934225D07B68DBB243F00073394A93421CD07B68DBB243F00073374AE3
:20492000934213D07B68DBB243F00073344A93420AD07B68DBB243F00073324A934201D143
:2049400040231CE000231AE0302318E0202316E01C2314E0202312E01C2310E040230EE06F
:2049600030230CE020230AE01C2308E0142306E0142304E0102302E0102300E0102307F119
:2049800008001A4615F02CF8F861FB69002B07D03B6840F2C91207491B48FBF70FFF02E082
:2049A0003B6800221A702837BD4680BDDC2B1200E42B1200F4261200B42812005C2B12001C
:2049C000842B1200EC301200FC301200010000020200000203000002040000020500000291
:2049E00008000002090000020A0000020B0000020C0000020D000002100000021100000247
:204A00001200000213000002B02B120090B591B000AF0346B9607A60FB8100237B6307F19A
:204A2000200300221A605A609A60DA601A612B4B07F110040FCB84E80F007B6800221A70E8
:204A400007F120034FF400511846FFF7B4F907F12003B9681846FFF7C6F9FA8907F12003B9
:204A600011461846FFF7D7F907F1380307F1100107F12000102214F011FDF863FB6B002B37
:204A800007D07B684FF4F27215491648FBF796FE21E0B96B07F13403BA68184614F0D2FFCA
:204AA000F863FB6B13F1860F06D07B6840F2EB120B490D48FBF782FEBB6B184614F022FDF2
:204AC000F863FB6B002B06D07B684FF4F97204490648FBF773FE4437BD4690BDA4281200DC
:204AE000F426120050271200EC2B120064281200B0B5A6B000AFF8600B467A60FB72864A10
:204B000007F1780392E8030083E80300834A07F1700392E8030083E803000223C7F8883078
:204B20007F4B07F15C040FCB84E80F007D4B07F13C041D460FCD0FC495E80F0084E80F00E5
:204B40004FF48853A7F886300023C7F89030FFF7D2F80346BB6307F124031846FFF7ECF8C2
:204B600007F110031846FFF7E7F84FF40053C7F880307B6800221A7007F12403D7F88010E5
:204B80001846FFF718F907F12403F9681846FFF72AF9B7F8862007F1240311461846FFF79A
:204BA0003AF9FB7A012B0BD107F16C0307F13C0107F12400202214F071FCC7F88C000AE0A5
:204BC00007F16C0307F15C0107F12400102214F065FCC7F88C00D7F88C30002B07D07B68AB
:204BE0004FF4107250495148FBF7E8FD2AE2FB7A012B04D14FF48073C7F8903002E080232B
:204C0000C7F89030FB6E07F110021146184614F09FFCC7F88C00D7F88C30002B07D07B6893
:204C20004FF4137240494248FBF7C8FDF9E107F110031846FFF720F90246D7F890309342E4
:204C400007D07B6840F2512237493A48FBF7B6FDE7E107F110031846FFF7EBF803461A469B
:204C6000B7F88630934207D07B6840F256222E493148FBF7A3FDD4E107F11003184614F0F2
:204C800091FCF96E07F13803FA68184614F0DAFEC7F88C00D7F88C30002B07D07B6840F264
:204CA0005F2221492548FBF789FDBAE10023C7F8943027E0D7F894309B0007F198021344C5
:204CC00053F8201CD7F894309B0007F19802134453F8282C07F13803184614F0E5FEC7F860
:204CE0008C00D7F88C30002B07D07B6840F269220D491348FBF762FD93E1D7F894300133BE
:204D0000C7F89430D7F89420D7F888309A42D1D30023C7F894301AE0942C1200E42B1200F3
:204D2000A42812009C2C1200F4261200502712006827120084271200B8271200242C120055
:204D40004C2C1200D7F894300133C7F89430A04AD7F8943052F82320FB68DBB243F00073DF
:204D60009A42EFD1FB7A012B40F09180FB68DBB243F00073974A93427FD0FB68DBB243F0F7
:204D80000073954A934276D0FB68DBB243F00073924A93426DD0FB68DBB243F00073904AB2
:204DA000934264D0FB68DBB243F000738D4A93425BD0FB68DBB243F000738B4A934252D01B
:204DC000FB68DBB243F00073884A934249D0FB68DBB243F00073864A934240D0FB68DBB242
:204DE00043F00073834A934237D0FB68DBB243F00073814A93422ED0FB68DBB243F000739A
:204E00007E4A934225D0FB68DBB243F000737C4A93421CD0FB68DBB243F00073794A9342B5
:204E200013D0FB68DBB243F00073774A93420AD0FB68DBB243F00073744A934201D140232B
:204E40001CE000231AE0302318E0202316E01C2314E0202312E01C2310E040230EE030237A
:204E60000CE020230AE01C2308E0142306E0142304E0102302E0102300E0102307F138002F
:204E80001A46634914F042FEC7F88C0093E0D7F894309B015F4A9918FB68DBB243F00073E5
:204EA0004C4A93427FD0FB68DBB243F000734A4A934276D0FB68DBB243F00073474A9342F7
:204EC0006DD0FB68DBB243F00073454A934264D0FB68DBB243F00073424A93425BD0FB68E2
:204EE000DBB243F00073404A934252D0FB68DBB243F000733D4A934249D0FB68DBB243F0D0
:204F000000733B4A934240D0FB68DBB243F00073384A934237D0FB68DBB243F00073364AAA
:204F200093422ED0FB68DBB243F00073334A934225D0FB68DBB243F00073314A93421CD0EF
:204F4000FB68DBB243F000732E4A934213D0FB68DBB243F000732C4A93420AD0FB68DBB2E0
:204F600043F00073294A934201D140231CE000231AE0302318E0202316E01C2314E02023FB
:204F800012E01C2310E040230EE030230CE020230AE01C2308E0142306E0142304E01023A1
:204FA00002E0102300E0102307F138001A4614F0ADFDC7F88C00D7F88C30002B30D07B68A7
:204FC00040F27E2214491548FBF7F8FB29E000BFEC3012000100000202000002030000025E
:204FE000040000020500000208000002090000020A0000020B0000020C0000020D00000259
:2050000010000002110000021200000213000002FC321200FC311200F4261200682C1200F1
:2050200000BFFB6E184614F06DFAC7F88C00D7F88C30002B06D07B6840F286220349044853
:20504000FBF7BCFB9837BD46B0BD00BFF426120064281200B0B5BEB008AF0346B9607A6019
:20506000FB810C23C7F8D430BD4A07F1B80307CA83E80700BB4B07F1A8040FCB84E80F00C6
:20508000B94B07F190041D460FCD0FC495E8030084E8030000233B6707F1740300221A60AF
:2050A0005A609A60DA601A615A619A610023FB660023BB660023BB6407F14C0300221A60E4
:2050C0005A609A60DA601A615A619A61A74B07F138040FCB84E80F0007F124031846FEF7C4
:2050E0002BFE07F110031846FEF726FE4FF44073C7F8D0307B6800221A7007F12403D7F8D3
:20510000D0101846FEF757FE07F12403B9681846FEF769FEFA8907F1240311461846FEF7C1
:205120007AFE07F1C40307F1380107F12400102214F0B4F9C7F8CC00D7F8CC30002B07D0B0
:205140007B684FF42A728A498A48FBF737FB04E1D7F8C43007F110021146184614F0F8F968
:20516000C7F8CC00D7F8CC30002B07D07B6840F2AE227F498048FBF721FBDCE007F110038D
:205180001846FEF779FE0346802B07D07B6840F2B32277497948FBF711FBCCE007F110035A
:2051A0001846FEF746FE03461A46FB89934207D07B684FF42E726E497148FBF7FFFABAE0C4
:2051C00007F11003184614F0EDF9D7F8C40007F1B80207F16C0306932023059307F17003F1
:2051E00004931023039307F1A80302931823019307F190030093D7F8D430B96814F0B8FC7E
:20520000C7F8CC00D7F8CC30002B14D0D7F8CC3013F1860F07D17B6840F2CA2254495948AE
:20522000FBF7CCFA87E07B6840F2CE2250495648FBF7C4FA7FE0BB6803F0FE43B3F1A06FFA
:2052400013D1BB681B0C03F03F03002B0DD0BB6803F0FE43B3F1A06F05D1BB681B0C03F0C6
:205260003F03103302E0102300E00023FA6E934207D07B684FF435723D494448FBF79EFA14
:2052800059E0D7F8C400FB6E07F1B80107F1680206922022059207F148020492039307F1EF
:2052A000700302931823019307F190030093D7F8D4300A46B96814F0C3FCC7F8CC00D7F898
:2052C000CC30002B14D0D7F8CC3013F1860F07D17B684FF4397226492A48FBF76FFA2AE070
:2052E0007B6840F2E62222492948FBF767FA22E0BB6E102B07D07B6840F2ED221C4925482F
:20530000FBF75CFA17E007F1480107F1A8031022184614F0B9FE0346C7F8C830D7F8C83058
:20532000002B07D07B684FF43E7211491A48FBF745FA00E000BFD7F8C430184614F0E2F80A
:20534000C7F8CC00D7F8CC30002B06D07B684FF4407207491148FBF731FAD837BD46B0BDD9
:205360006C2D1200E42A1200782D1200A4281200F4261200502712006827120084271200BA
:20538000B8271200B4281200BC2C1200E02C1200142D1200382D12005C2A1200BC2A1200BC
:2053A00080B58EB000AF786007F120031846FEF7C3FC0023BB6007F10C0300221A605A602B
:2053C0009A60C3F80B2007F120034FF480711846FEF7F1FC144A07F1200311461846FEF73B
:2053E00002FD07F120034FF410511846FEF713FD07F11C0307F1080107F12000132214F023
:205400004DF878637B6B13F1870F07D07B684FF44D7206490648FBF7D1F902E07B680022F0
:205420001A703837BD4680BD00404004F4261200902D120080B58EB000AF78603A4B7B6357
:2054400000233B6307F10C031846FEF775FC0123FB6207F10C031846FEF7BAFCB862BB6AF0
:20546000002B07D07B6840F24D3230493048FBF7A5F955E007F10C031846FEF7C1FC7862EF
:205480007B6A002B07D07B6840F2533227492948FBF794F944E007F10C03F96A1846FEF74A
:2054A0008AFC07F10C03796B1846FEF79CFC07F10C031846FEF78CFCB862BA6AFB6A9A422F
:2054C00007D07B6840F25E3218491948FBF776F926E007F10C031846FEF792FC78627A6A81
:2054E0007B6B9A4207D07B6840F265320F491148FBF764F914E007F10C031846FEF750FCCD
:2055000038623A6A3B6B9A4207D07B6840F26D3206490948FBF752F902E07B6800221A70F2
:205520003837BD4680BD00BF00404004F4261200CC2D1200E42D1200002E120090B599B051
:2055400000AF7860FEF7E2FB0346BB6407F134031846FEF7F1FB4FF440733B656B4B07F1D8
:205560001C040FCB84E80F007B6800221A70002387F8573015E097F85730654A52F82330A7
:2055800003F0FE43B3F1806F06D197F85730604A52F82330FB6508E097F85730013387F8FF
:2055A000573097F85730032BE5D997F85730013387F8563015E097F85630554A52F82330CD
:2055C00003F0FE43B3F1806F06D197F85630504A52F82330BB6508E097F85630013387F811
:2055E000563097F85630042BE5D997F85630052B03D14848FBF790FF84E007F13403396DC0
:205600001846FEF7D8FB07F13403F96D1846FEF7EAFB07F134034FF410511846FEF7FBFB7B
:2056200007F1300307F11C0107F13400102213F035FFF864FB6C002B07D07B6840F2A732E2
:2056400035493648FBF7BAF85CE0396B07F14803FA6D184614F02EF8F864FB6C002B07D0D3
:205660007B6840F2AE322C492D48FBF7A7F83AE007F14803184614F0BBF8F864FB6C002B5A
:2056800007D07B684FF46D7223492648FBF796F829E0396B07F14803BA6D184614F00AF859
:2056A000F864FB6C13F1850F07D07B6840F2BB3219491D48FBF782F815E0386B07F12C03C4
:2056C00007F10C01102213F093FFF864FB6C13F1850F07D07B6840F2C2320F491348FBF71E
:2056E0006DF800E000BF3B6B184613F00BFFF864FB6C002B06D07B6840F2C93206490C481E
:20570000FBF75CF86437BD4690BD00BFA428120018331200202E1200F4261200582E12003A
:20572000702E1200942E1200B82E1200EC2E1200242F120090B597B000AF78603960594B0C
:205740007B6501233B6507F1300300221A605A609A60DA601A61544B07F11C040FCB84E878
:205760000F000023FB6007F1100300221A605A609A6007F1300379681846FEF7F6FA07F1FA
:205780003003396D1846FEF716FB07F13003796D1846FEF728FB07F130034FF41051184618
:2057A000FEF739FB07F1440307F11C0107F13000102213F073FEF864FB6C002B07D03B6836
:2057C00040F2E73239493A48FAF7F8FF67E07B6C184613F03FFEF864FB6C002B07D03B685E
:2057E00040F2EE3231493348FAF7E8FF57E007F144031946786813F001FEF864FB6C002BE5
:2058000007D03B6840F2F53228492B48FAF7D6FF45E0786C07F12C0307F10C01102213F0A1
:20582000E7FEF864FB6C002B07D03B684FF47F721E492248FAF7C2FF31E0FB6A102B07D0DC
:205840003B6840F2014219491D48FAF7B7FF26E007F11C0107F10C031022184614F014FCFC
:20586000B864BB6C002B07D03B6840F20C420F491448FAF7A3FF12E07B6C184613F042FEFF
:20588000F864FB6C002B07D03B6840F2134207490D48FAF793FF02E03B6800221A705C372D
:2058A000BD4690BD00404004A4281200F4261200582E12003C2F1200642F1200842F12008B
:2058C00000281200A82F1200D82F120080B592B000AF786039600023FB630023BB6307F13B
:2058E000240300221A605A609A60DA601A6107F1100300221A605A609A60DA601A61A523A4
:2059000087F8473097F8473010221946974814F049FC97F847305A1C87F8472008221946E7
:20592000934814F03FFC97F847305A1C87F84720082219468F4814F035FCFEF7F2F903462D
:20594000FB6007F124034FF480411846FEF733FA07F1240379681846FEF745FA07F1240398
:205960004FF490511846FEF756FA07F13C0307F1240010227D4913F091FD38643B6C002B16
:2059800007D03B6840F242427B497C48FAF716FFE8E007F10C037968184614F07BFA386426
:2059A0003B6C002B07D03B684FF4896272497448FAF704FFCAE07B6823F0FF03714A9342D0
:2059C00005D07B6823F0FF036F4A93423BD107F10C000823674A4FF4017114F089FA3864A8
:2059E0003B6C002B07D03B6840F2534262496748FAF7E4FEA5E0FA6B07F10C0340F2011132
:205A0000184614F0EDF938643B6C002B07D03B6840F25B4258495E48FAF7D0FE91E007F118
:205A20000C000823524A40F2012114F061FA38643B6C002B51D03B6840F264424E495548A2
:205A4000FAF7BCFE7DE07B6823F0FF03524A93423BD107F10C000823464A40F2022114F0B1
:205A600047FA38643B6C002B07D03B6840F26D4241494A48FAF7A2FE63E0FA6B07F10C03C0
:205A800040F20111184614F0ABF938643B6C002B07D03B6840F2754237493D48FAF78EFE69
:205AA0004FE007F10C000823314A40F2032114F01FFA38643B6C002B0FD03B6840F27E42B8
:205AC0002D493748FAF77AFE3BE03B6840F2824229493448FAF772FE33E007F110034FF404
:205AE00080711846FEF767F92F4A07F1100311461846FEF778F907F110034FF41051184656
:205B0000FEF789F907F110034FF480711846FEF79BF907F1380207F10C0107F11003184648
:205B200014F016FA38643B6C002B07D03B6840F2944211491D48FAF741FE02E03B680022CB
:205B40001A7007F10C03184614F078F9FB6B184613F0D8FCBB6B002B03D0BB6B184613F09B
:205B6000D1FC00BF4837BD4680BD00BF304210284042102848421028F4261200FC2F12008C
:205B80001430120000020008000300083C3012005430120068301200000100088030120011
:205BA00098301200B030120000404004D430120080B485B000AFF860B9607A6000BF143712
:205BC000BD4680BC7047000080B584B000AF78600023FB60002300220A490B4800F0FCF892
:205BE000F860FB68002B06D07B687D2207490848FAF7E4FD02E07B6800221A701037BD463A
:205C000080BD00BFB15B10005042102840371200A437120080B584B000AF78600123FB60BD
:205C20007B68FA6803490448FAF7A8FD00BF1037BD4680BD48051028B837120080B483B0BE
:205C400000AF78607B689B6818460C37BD4680BC704780B584B000AFF8603B1D83E8060007
:205C6000F868FFF7EBFF03463A1D06CAF86816F021FD00BF1037BD4680BD80B586B000AF90
:205C8000F860B9607A60BB683B617B687B6107F1100393E80600F868FFF7DBFF00BF183771
:205CA000BD4680BD80B582B000AF78600B46FB70FB1C012219467868FFF7DFFF00BF0837AF
:205CC000BD4680BD80B483B000AF78607B689B7B18460C37BD4680BC7047000080B58CB095
:205CE00000AFF8603B1D83E80600374B7B6207F110003B1D93E8060016F0C3FCFB68002B41
:205D000008DA07F110032D211846FFF7CBFFFB685B42FB607A6AFB689A4201DC2B4B4EE02B
:205D2000002387F82F307B6ABB6227E0FA68BB6A92FBF3F33B623B6A002B03D197F82F3030
:205D4000002B13D0012387F82F303B6ADBB23033DAB207F1100311461846FFF7A3FF3B6A15
:205D6000BA6A02FB03F3FA68D31AFB60BB6A184A82FB03129210DB17D31ABB62BB6A002B5B
:205D8000D4DC97F82F3083F00103DBB2002B05D007F1100330211846FFF784FF07F1100323
:205DA00000211846FFF77EFF07F110031846FFF789FF0346002B01D17B6800E0054B184653
:205DC0003037BD4680BD00BF00CA9A3BD03C120067666666D43C120080B594B000AFF86065
:205DE000B9607A603B600023FB640023BB6407F11C037B610C23BB61824B7B63824B7B64BC
:205E00005CE0FB681B68002B1BD0FB683B640DE07B6C1A683B6C1B68194610461AF0DEF833
:205E20000346002B07D03B6C04333B643B6C1B68002BEDD100E000BF3B6C1B68002B07D1BB
:205E400039E07B6C1B7A83F00103DBB2002B31D17B6C5B689847B862BB6C0133BB64BB683C
:205E6000002B05D07B6C1868BB68002279689847BB6A002B15D0BB68002B0ED0BB68002210
:205E8000796862489847BB6800227968B86A9847BB68012279685E489847FB6C0133FB64CB
:205EA00009E0BB68002B06D0BB68012279685948984700E000BF7B6C0C337B647A6C7B6BBE
:205EC0009A429ED3544B3B63544BFB6362E0FB681B68002B1BD0FB68BB630DE0FB6B1A68A7
:205EE000BB6B1B68194610461AF078F80346002B07D0BB6B0433BB63BB6B1B68002BEDD172
:205F000000E000BFBB6B1B68002B07D13FE0FB6B1B7A83F00103DBB2002B37D1FB6B5B68BC
:205F20009847F862BB6C0133BB64BB68002B05D0FB6B1868BB68002279689847FB6A002B10
:205F40001BD0BB68002B14D0BB68002279682F48984707F1140393E80600F86AFFF7BEFE04
:205F6000BB68002279689847BB680122796828489847FB6C0133FB6409E0BB68002B06D09F
:205F8000BB68012279682348984700E000BFFB6B0C33FB63FA6B3B6B9A4298D33B68002BCE
:205FA00002D03B68BA6C1A60BB68002B24D0BB68002279681A48984707F1140393E8060093
:205FC000B86CFFF78BFEBB68002279689847BB68002279681348984707F1140393E8060029
:205FE000F86CFFF77BFEBB68002279689847BB68012279680C489847FB6C18465037BD4620
:2060000080BD00BFB805102864051028D83C1200EC3C1200F03C12001C081028B8051028FF
:20602000F83C1200043D1200143D120080B483B000AF3B4683E803003B68002B0CBF0123A2
:206040000023DBB218460C37BD4680BC704780B483B000AF3B4683E803003B68002B0CBF5B
:2060600001230023DBB218460C37BD4680BC704780B483B000AF3B4683E803007B68002BA2
:206080000CBF01230023DBB218460C37BD4680BC704780B483B000AF3B4683E803007B68E2
:2060A000002B0CBF01230023DBB218460C37BD4680BC704780B582B000AF3B4683E803007A
:2060C0003B4693E80300FFF7D3FF0346002B07D13B4693E80300FFF7A9FF0346002B01D0CB
:2060E000012300E0002318460837BD4680BD80B582B000AF3B4683E803003B4693E8030098
:20610000FFF7C7FF0346002B07D13B4693E80300FFF79DFF0346002B01D0012300E000237A
:2061200018460837BD4680BD80B487B000AFF8603B1D83E806007968BA68FB681960FB6805
:206140005A60F8681C37BD4680BC704780B487B000AFF8603B1D83E806007968BA68FB683B
:206160001960FB685A60F8681C37BD4680BC704780B584B000AF78603960386819F038FF77
:2061800001467B683A681A607B68596078681037BD4680BD82B090B587B002AFF860381DAA
:2061A00080E806007B62FC686A4607F1240393E8030082E8030000233A1D06CA204616F0C0
:2061C000ABF9F8681437BD46BDE8904002B0704780B586B000AFF860381D80E80600FB70EF
:2061E0007B68F978BA68184613F0DCFF7968BA68FB681960FB685A60F8681837BD4680BD02
:2062000080B588B002AFF860381D80E806003B603B683B613B6A7B61F8687B6900933B696F
:206220003A1D06CAFFF7B6FFF8681837BD4680BD80B489B000AFF860381D80E806003B60CB
:20624000BB683A689A4206D9FB6800221A60FB6800225A6005E07A68FB681A60FB683A68D7
:206260005A60F8682437BD4680BC704780B48DB000AFF860381D80E806003B60BB683A6818
:206280009A4204D90023BB620023FB6211E07B68002B06D1BA683B68D31A0022BA62FB6262
:2062A00007E07A683B681A44B9683B68CB1ABA62FB62FB681A4607F1280393E8030082E824
:2062C0000300F8683437BD4680BC704780B584B000AF7860391D07F10C030422184613F026
:2062E00002FFFB6818461037BD4680BD80B584B000AFC7E90001394607F108030822184682
:2063000013F0F1FED7E90223104619461037BD4680BD80B584B000AFC7E90001394607F12A
:2063200008030822184613F0DEFED7E90223104619461037BD4680BD80B584B000AF7860DA
:20634000391D07F10C030422184613F0CCFEFB6818461037BD4680BD80B483B000AF786059
:206360007B6800229A607B6800229A7300BF0C37BD4680BC704780B483B000AF78607B6843
:206380009B6818460C37BD4680BC704780B483B000AF78607B689B68002B0CBF0123002352
:2063A000DBB218460C37BD4680BC704780B586B000AFF860B9607A603B60BB683B617B6817
:2063C0007B613B6807F1100206CAF86816F072F900BF1837BD4680BD80B586B000AFF860D3
:2063E000B9607A60BB683B61B86819F001FE03467B617B6807F1100206CAF86816F05AF928
:2064000000BF1837BD4680BD80B584B000AFF8600B467A60FB7207F10B017B680122F868BC
:20642000FFF7C4FF00BF1037BD4680BD80B586B000AFF8600B467A607B817B891B0A9BB24E
:20644000DBB23B747B89DBB27B7407F110037B617B6802227969F868FFF7A8FF00BF1837A5
:20646000BD4680BD80B586B000AFF860B9607A60BB681B0EDBB23B74BB681B0CDBB27B7429
:20648000BB681B0ADBB2BB74BB68DBB2FB7407F110037B617B6804227969F868FFF786FF2C
:2064A00000BF1837BD4680BD80B588B000AFF860C7E90023D7E900014FF000024FF0000303
:2064C0000A0E0023D3B23B75D7E900014FF000024FF000030A0C0023D3B27B75D7E9000199
:2064E0004FF000024FF000030A0A0023D3B2BB75D7E900014FF000024FF000030A000023BC
:20650000D3B2FB75D7E900014FF000024FF00003020E42EA01220B0ED3B23B76D7E90001D3
:206520004FF000024FF00003020C42EA01420B0CD3B27B76D7E900014FF000024FF000038A
:20654000020A42EA01620B0AD3B2BB763B78FB7607F11403FB61BB6A0822F969F868FFF73F
:2065600025FF00BF2037BD4680BD80B584B000AFF860B9607A60B868FFF7A8FE03467A6857
:206580001946F868FFF76EFF00BF1037BD4680BD80B586B002AFF860C7E90023D7E900018B
:2065A000FFF7A4FE02460B46B9690091F868FFF77BFF00BF1037BD4680BD80B584B000AFC9
:2065C000F8603B1D83E80600F868FFF7D4FE03463A1D06CAF86816F06DF800BF1037BD462E
:2065E00080BD80B586B000AFF860B9607A60BB683B617B687B6107F1100393E80600F8688F
:20660000FFF7DBFF00BF1837BD4680BD80B584B000AF786039603B68BB60386819F0E8FC88
:206620000346FB6007F1080393E806007868FFF7C4FF00BF1037BD4680BD80B582B000AF3D
:2066400078600B46FB70FB1C012219467868FFF7C8FF00BF0837BD4680BD80B582B000AF1C
:2066600078600B467B807868FFF785FE02467B8819467868FFF7DAFE00BF0837BD4680BD07
:2066800080B582B000AF786039607868FFF773FE03461A4639687868FFF7E4FE00BF08372C
:2066A000BD4680BD80B586B002AFF860C7E90023F868FFF760FE03460093D7E90023F86880
:2066C000FFF7F2FE00BF1037BD4680BD80B582B000AF786039607868FFF74DFE03461A463D
:2066E00039687868FFF741FF00BF0837BD4680BD80B586B002AFF860C7E90023F868FFF708
:206700003AFE03460093D7E90023F868FFF740FF00BF1037BD4680BD80B483B000AF7860B9
:206720007B689B7B18460C37BD4680BC704780B483B000AF78607B685A687B689B68D31A63
:2067400018460C37BD4680BC704780B582B000AF786039607868FFF7EAFF02463B6893429C
:2067600094BF01230023DBB218460837BD4680BD80B483B000AF78607B681B68002B0CBFCB
:2067800001230023DBB218460C37BD4680BC704780B485B000AFF8603B1D83E80600FB68F2
:2067A00000229A60FB6800229A73FB684BF20F029A81FB681A463B1D93E8030082E8030059
:2067C00000BF1437BD4680BC704780B483B000AF78607B689B6818460C37BD4680BC70474E
:2067E00080B483B000AF786039607B685B683A689A4203D97B6801229A7302E07B683A6898
:206800009A6000BF0C37BD4680BC704780B483B000AF78607B689B894BF20F02934201D09D
:2068200000230CE07B689A687B685B689A4201D9002304E07B685A687B689B68D31A18462B
:206840000C37BD4680BC704780B582B000AF786039607868FFF7DAFF02463B68934294BFB6
:2068600001230023DBB218460837BD4680BD80B58AB000AFF860B9607A607968B86815F0F8
:20688000D9FF78627B6A002B06D1FB6800221A60FB6800225A6005E0FB687A6A1A60FB6818
:2068A0007A685A60F8682837BD4680BD80B584B000AF78600121786815F0BCFFF860FB68D0
:2068C000002B02D0FB681B7800E0002318461037BD4680BD80B584B000AF786002217868EA
:2068E00015F0A8FFF860FB68002B01D100230AE0FB681B789BB21B029AB2FB6801331B7851
:206900009BB213449BB218461037BD4680BD80B584B000AF78600421786815F08BFFF860C5
