:020000040010EA
:20000000A0561028110910007109100075091000790910007D0910008109100000000000AE
:20002000000000000000000000000000852310008909100000000000212410002F241000AE
:2000400095091000990910009D091000A1091000E5491000A9091000AD091000B109100040
:20006000000000000000000000000000B5091000B9091000BD09100000000000C109100030
:20008000C5091000C9091000CD091000D1091000D509100000000000D9091000DD091000FA
:2000A000E1091000E5091000E909100000000000ED091000F1091000000000000000000036
:2000C000F5091000F9091000FD091000010A1000050A1000090A10000D0A1000110A10003B
:2000E000150A1000190A10001D0A1000210A1000250A1000290A10002D0A1000310A100018
:20010000350A1000390A10003D0A1000410A1000450A1000490A10004D0A1000510A1000F7
:20012000550A1000590A10005D0A1000610A1000650A1000690A10006D0A1000710A1000D7
:20014000750A1000790A10007D0A1000810A1000850A1000890A10008D0A1000910A1000B7
:20016000950A1000990A10009D0A1000A10A1000A50A1000A90A1000AD0A1000B10A100097
:20018000B50A1000B90A1000BD0A1000C10A1000C50A1000C90A1000CD0A1000D10A100077
:2001A000D50A1000D90A1000DD0A1000E10A1000E50A1000E90A1000ED0A1000F10A100057
:2001C00010B5054C237833B9044B13B1044800E000BF0123237010BD801D1028000000002B
:2001E000D4A2120008B5034B1BB10349034800E000BF08BD00000000841D1028D4A2120044
:20020000154B002B08BF134B9D46A3F5803A00218B460F461348144A121A20F0C0FA0F4BA9
:20022000002B00D098470E4B002B00D098470020002104000D000D48002802D00C4800E0DC
:2002400000BF20F055FA2000290000F0DDFC20F03BFA00BF00000800E057102800000000F3
:20026000310B1000801D1028FC551028000000000000000080B485B000AF786039607B6868
:200280001B681B68FB603B68002B01D101231BE07B685B683A685A607B681A687B685B6831
:2002A00052689A607B685B685A687B681B685B68B2FBF3F2FB681A61FB6803229A607B6824
:2002C0005B6801221A60002318461437BD4680BC704780B485B000AF786039607B681B680D
:2002E0001B68FB603B68002B01D102231CE07B685B681B6803F00103002B01D1032313E029
:200300007B685B685A683B68B2FBF3F3BB607B685B683A689A60BB680F2B01D8022303E0A4
:20032000FB68BA681A61002318461437BD4680BC704780B485B000AF786039607B681B680C
:200340001B68FB60FB685B6803F00203002B01D1042305E0FB681B68DAB23B681A700023D6
:2003600018461437BD4680BC704780B485B000AF78600B46FB707B681B681B68FB60FB688B
:200380005B6803F00103002B01D0042303E0FA78FB681A60002318461437BD4680BC70478C
:2003A00080B485B000AF78607B681B681B68FB607B685B681B6803F00103002B01D10023C9
:2003C00008E0FB685B6803F00103002B0CBF01230023DBB218461437BD4680BC704780B47B
:2003E00085B000AF78607B681B681B68FB607B685B681B6803F00103002B01D1002303E0DA
:20040000FB685B6803F0020318461437BD4680BC704780B485B000AF78607B681B681B6846
:20042000FB607B685B681B7883F00103DBB2002B0AD0FB6800221A60FB686FF000429A6022
:200440007B685B6801221A7000BF1437BD4680BC704780B483B000AF78607B685B681B7822
:2004600018460C37BD4680BC704780B485B000AF78607B681B681B68FB60FB681B6843F098
:200480000102FB681A6000BF1437BD4680BC704780B485B000AF78607B681B681B68FB6048
:2004A000FB681B6823F00102FB681A6000BF1437BD4680BC704780B485B000AF78607B6890
:2004C0001B681B68FB60FB681B6843F00802FB681A6000BF1437BD4680BC704780B485B052
:2004E00000AF78607B681B681B68FB60FB681B6823F00802FB681A6000BF1437BD4680BC08
:20050000704780B485B000AF78607B681B681B68FB60FB68DB6843F00102FB68DA6000BFB8
:200520001437BD4680BC704780B485B000AF786039607B681B681B68FB60FB683A689A60AE
:2005400000BF1437BD4680BC7047000080B500AF0C48FFF77EFF034683F00103DBB2002B78
:2005600002D00848FFF755FF4FF080710548FFF7DBFF0448FFF779FF0248FFF79CFF00BF6E
:2005800080BD00BF1000102880B500AF0548FFF77FFF0448FFF7A2FF0248FFF7B2FF00BFDF
:2005A00080BD00BF1000102880B483B000AF074B1B687B600023BA8862F30F03FA8862F38E
:2005C0001F4318460C37BD4680BC7047440A120080B400AF002343F001031846BD4680BCE8
:2005E0007047000080B582B000AF78607B681A68054B1B6819461046FFF73CFE00231846B8
:200600000837BD4680BD00BF0400102880B483B000AF78600B46FB70FB78002B09DB012B08
:2006200002DD022B03D004E06FF0030301E00023FFE718460C37BD4680BC704780B586B0A6
:2006400000AFF860B9607A60BB687B61BB68002B02D07B68002B02D16FF004032BE0FB68CC
:2006600000225A6018E000BFFB681B681846FFF797FE0346002BF7D0FB681A687B691B7881
:2006800019461046FFF771FEFB685B685A1CFB685A607B6901337B61FB685B687A689A42AF
:2006A000E1D100BFFB681B681846FFF779FE0346002BF7D0002318461837BD4680BD80B598
:2006C00086B000AFF860B9607A60BB687B61BB68002B02D07B68002B02D16FF0040320E084
:2006E000FB6800229A6016E000BFFB681B681846FFF775FE0346002BF7D0FB681B68796916
:200700001846FFF716FEFB689B685A1CFB689A607B6901337B61FB689B687A689A42E3D16C
:20072000002318461837BD4680BD80B483B000AF78607B685B6818460C37BD4680BC70477E
:2007400080B483B000AF78607B689B6818460C37BD4680BC704780B584B000AFF860B960A5
:200760007A60BB68DBB2012B0BD1FB681B6879681846FFF7AEFD0346002B05D06FF007036F
:200780001CE06FF0030319E000BFBB6803F4E063002B02D06FF0030310E0BB6803F44053E4
:2007A000002B02D06FF0090308E0BB6803F44043002B02D06FF00A0300E00023184610373B
:2007C000BD4680BD80B582B000AF7860054A7B68D3600448FFF706FF034618460837BD4656
:2007E00080BD00BF1800102880B400AF00231846BD4680BC7047000080B582B000AF0346F4
:20080000FB71FB7919460448FFF700FF034618460837BD4680BD00BF1800102880B582B0BC
:2008200000AF786039603A6879680448FFF706FF034618460837BD4680BD00BF1800102899
:2008400080B582B000AF786039603A6879680448FFF735FF034618460837BD4680BD00BF33
:200860001800102880B485B000AFF860B9607A606FF0030318461437BD4680BC70470000C1
:2008800080B500AF0248FFF750FF0346184680BD1800102880B500AF0248FFF751FF0346F4
:2008A000184680BD1800102880B582B000AF786039603A6879680448FFF74DFF034618460E
:2008C0000837BD4680BD00BF1800102880B483B000AF00237B607B6818460C37BD4680BCB3
:2008E000704780B483B000AF0346FB716FF0030318460C37BD4680BC704780B483B000AF64
:2009000000237B607B6818460C37BD4680BC7047124C134DAC4209DA21686268A368043B33
:20092000A2BFC858D050FAE70C34F3E70D4B0E4CA34208DA19685A680020043AA4BF8850C6
:20094000FBE70833F4E7EFF3148040F0020080F31488064880F30988FFF752FCE0A21200BE
:20096000F8A21200F8A2120008A31200E0571028FFF7FEBFFFF7FEBFFFF7FEBFFFF7FEBF27
:20098000FFF7FEBF01F0FEBCFFF7FEBF01F048BD01F04DBDFFF7FEBFFFF7FEBFFFF7FEBF3C
:2009A000FFF7FEBF04F01EB8FFF7FEBFFFF7FEBFFFF7FEBFFFF7FEBFFFF7FEBFFFF7FEBF88
:2009C000FFF7FEBFFFF7FEBFFFF7FEBFFFF7FEBFFFF7FEBFFFF7FEBFFFF7FEBFFFF7FEBF7F
:2009E000FFF7FEBFFFF7FEBFFFF7FEBFFFF7FEBFFFF7FEBFFFF7FEBFFFF7FEBFFFF7FEBF5F
:200A0000FFF7FEBFFFF7FEBFFFF7FEBFFFF7FEBFFFF7FEBFFFF7FEBFFFF7FEBFFFF7FEBF3E
:200A2000FFF7FEBFFFF7FEBFFFF7FEBFFFF7FEBFFFF7FEBFFFF7FEBFFFF7FEBFFFF7FEBF1E
:200A4000FFF7FEBFFFF7FEBFFFF7FEBFFFF7FEBFFFF7FEBFFFF7FEBFFFF7FEBFFFF7FEBFFE
:200A6000FFF7FEBFFFF7FEBFFFF7FEBFFFF7FEBFFFF7FEBFFFF7FEBFFFF7FEBFFFF7FEBFDE
:200A8000FFF7FEBFFFF7FEBFFFF7FEBFFFF7FEBFFFF7FEBFFFF7FEBFFFF7FEBFFFF7FEBFBE
:200AA000FFF7FEBFFFF7FEBFFFF7FEBFFFF7FEBFFFF7FEBFFFF7FEBFFFF7FEBFFFF7FEBF9E
:200AC000FFF7FEBFFFF7FEBFFFF7FEBFFFF7FEBFFFF7FEBFFFF7FEBFFFF7FEBFFFF7FEBF7E
:200AE000FFF7FEBFFFF7FEBFFFF7FEBFFFF7FEBFFFF7FEBF80B483B000AF7860FEE70000A4
:200B000080B483B000AF786039607B68013B042B0CD801A252F823F02D0B10002D0B10008C
:200B20002D0B10002D0B10002D0B100000BFFEE780B500AF02F084FE00BF80BD80B584B07C
:200B400000AF786039600F4B5B69396878689847F860FB68002B01D000230EE000BF094B1C
:200B6000DB6A98470346DBB203F00103DBB2002BF5D1044B1B6A9847034618461037BD4662
:200B800080BD00BF480A120080B582B000AF1B4B9B680020984778607B68002B05D08A2210
:200BA0001749184800F0A2FBFEE7144B1B690220984778607B68002B05D08D221049114803
:200BC00000F094FBFEE70D4B9B6A4FF4E1310120984778607B68002B05D0912208490948EF
:200BE00000F084FBFEE7054B9B6A012115209847002318460837BD4680BD00BF480A1200F3
:200C0000E80B1200940B120080B582B000AF0F4B7B607B6883F30A88FFF7B6FF0346002BC9
:200C200000D0FEE702F00CFE00F0A2FB084B094A1A60074B1B68084A0021184602F09EFC24
:200C4000064800F053FB02F00DFEFEE70056102800411028610C1000C40B1200A40B120000
:200C600080B582B000AF78600BF0BEFE03F038FBFEE780B58EB000AFF860B9607A603B60BC
:200C800007F114032422002118461FF088FD01233B63BB68B3F1FF3F01D0BB68BB62FB68B1
:200CA0007B613B6CFB6207F114031A463968786802F064FC034618463837BD4680BD80B587
:200CC00088B000AFF860B9607A6007F1100300221A605A609A60DA607B683B6107F11003C3
:200CE0001A46B968F86801F091FD034618462037BD4680BD80B584B000AF7860396039682C
:200D0000786801F095FDF860FB68002B02D04FF0FF3300E0002318461037BD4680BD80B52A
:200D200084B000AF7860786801F0B6FDF860FB68002B02D04FF0FF3300E0002318461037A3
:200D4000BD4680BD80B584B000AF7860786801F0D9FDF860FB68002B02D04FF0FF3300E0B3
:200D6000002318461037BD4680BD80B584B000AF00233B6002237B600023BB600023FB60D9
:200D80003B46184601F0D4FE034618461037BD4680BD80B584B000AF786039600023FB607C
:200DA0007B68002B02D14FF0FF330BE03968786801F0D0FEF860FB68002B02D04FF0FF338D
:200DC00000E0002318461037BD4680BD80B584B000AF78600023FB607B68002B02D14FF09D
:200DE000FF330AE0786801F0C7FEF860FB68002B02D04FF0FF3300E0002318461037BD466D
:200E000080BD80B500AF02F0DDFB0346184680BD80B584B000AF78603960786802F0E4FBC9
:200E2000F860FB68B3F1FF3F02D14FF0FF3303E0FA683B681A60002318461037BD4680BD67
:200E400080B500AF01F0CAFE80B582B000AF78600B46FB707B681B68591C7A6811607A683B
:200E60001344FA781A717B681B681F2B08D97B6800221A607B68043320211846FFF75EFE03
:200E800000BF0837BD4680BD80B584B000AF786039600023FB600AE03B685A1C3A601B78DD
:200EA00019467868FFF7D0FFFB680133FB603B681B78002BF0D1FB6818461037BD4680BDD2
:200EC00080B58AB000AFF860B9601346FB7100237B6207F1100300221A605A609A60BB6840
:200EE0003B620023FB61FB79642B0CD1BB68002B09DA2D21F868FFF7A7FF7B6A01337B6285
:200F0000BB685B423B62396A1A4BA3FB0123DA0813469B0013445B00CA1AD2B2FB69591CE1
:200F2000F9613032D2B207F128010B4403F8182C3B6A104AA2FB0323DB083B623B6A002BB0
:200F4000E1D10EE0FB69013BFB6107F11002FB6913441B781946F868FFF776FF7B6A01335A
:200F60007B62FB69002BEDD17B6A18462837BD4680BD00BFCDCCCCCC80B58AB000AFF860FF
:200F8000B9607A6000237B6207F1140300221A605A609A6000233B62BB6803F00F037A6835
:200FA0001A443B6A591C3962127807F128010B4403F8142CBB681B09BB60BB68002BEBD17D
:200FC0000EE03B6A013B3B6207F114023B6A13441B781946F868FFF737FF7B6A01337B6227
:200FE0003B6A002BEDD17B6A18462837BD4680BD80B58CB000AF786039600023FB6200234D
:20100000BB6052E17B681B78252B40F041817B6801337B607B681B78253B532B00F22981E8
:2010200001A252F823F000BF5F121000731210007312100073121000731210007312100087
:201040007312100073121000731210007312100073121000731210007312100073121000E8
:201060007312100073121000731210007312100073121000731210007312100073121000C8
:201080007312100073121000731210007312100073121000731210007312100073121000A8
:2010A000731210007312100073121000731210007312100073121000731210007312100088
:2010C000731210007312100073121000731210007312100073121000731210007312100068
:2010E0007312100073121000731210007312100073121000D31110007312100073121000E9
:20110000731210007312100073121000731210007312100073121000731210007312100027
:2011200041121000791110007312100073121000731210007312100079111000731210002F
:201140007312100073121000731210007312100073121000F111100073121000731210006A
:201160002312100073121000971110007312100073121000B51110003B681A1D3A601968E8
:2011800007F1080364221846FFF79AFE0246FB6A1344FB6278E03B681A1D3A60196807F134
:2011A000080375221846FFF78BFE0246FB6A1344FB6269E03B681A1D3A60196807F108030E
:2011C000464A1846FFF7D8FE0246FB6A1344FB625AE03B681A1D3A60196807F10803404A38
:2011E0001846FFF7C9FE0246FB6A1344FB624BE007F108033B491846FFF746FE0246FB6A7C
:201200001344FB623B681A1D3A60196807F10803324A1846FFF7B0FE0246FB6A1344FB6243
:2012200032E03B681A1D3A601A6807F1080311461846FFF729FE0246FB6A1344FB6223E06D
:201240003B681A1D3A601B68DAB207F1080311461846FFF7F9FDFB6A0133FB6214E007F185
:20126000080325211846FFF7EFFDFB6A0133FB620AE007F108031C491846FFF705FE0246F6
:20128000FB6A1344FB6210E07B6801337B600CE07B685A1C7A601A7807F1080311461846EA
:2012A000FFF7D2FDFB6A0133FB627B681B78002B7FF4A8AEBB68002B0BD0BA6807F10803BB
:2012C000043311461846FFF739FC0246FB6A1344FB62FB6A18463037BD4680BD000C12000E
:2012E000100C1200200C1200240C12000FB480B582B000AF00237B6007F114033B6039681E
:201300003869FFF775FE78607B6818460837BD46BDE8804004B0704790B587B000AFF86015
:20132000B9607A603B60114B1B684FF0FF311846FFF72FFD0346002B01D01F2311E0FC6875
:20134000BB6A3A687968B868A0477861074B1B681846FFF73BFD0346002B01D01F2300E03D
:201360007B6918461C37BD4690BD00BF0441102880B582B000AFFFF7F8FC78607B68002B66
:2013800001D11F2303E0044A7B681360002318460837BD4680BD00BF0441102880B58EB003
:2013A00002AFF860B9607A603B6007F10C03FB6104233B627B687B623B68BB62BB6B7B61ED
:2013C000BB68BB6107F11C0107F1140201230093134602220548FFF79FFFF862BA69FB6BB3
:2013E0001A60FB6A18463037BD4680BD51FA061080B58AB002AF786039607B68FB600423B2
:201400003B613B687B610423BB6107F10C02022300931346002200210448FFF77DFFF861FD
:20142000FB6918462037BD4680BD00BF79F9061080B58AB002AF786039603B1D7B61042320
:20144000BB613B68FB6004233B6107F1140107F10C0201230093134601220448FFF75CFFCC
:20146000F861FB6918462037BD4680BD09FA061080B58CB002AFF860B9607A6007F10C032D
:201480007B610423BB61BB68FB617B683B6207F1140100230093002302220448FFF73CFFA7
:2014A00078627B6A18462837BD4680BDE1FB061080B58EB002AFF860B9607A60FB687B62CF
:2014C00007F124037B610423BB61BB68002B08D0BB681B68FB61BB685B683B620223FB62A1
:2014E00001E00123FB627B68002B02D00123BB6201E00023BB6207F114017A68BB6A0093A1
:201500001346FA6A0348FFF707FF034618463037BD4680BDA9F9061080B58EB002AFC7E9ED
:2015200002017A603B6007F108037B610823BB613B68FB617B683B6207F138037B62042357
:20154000BB6207F1140100230093002303220748FFF7E2FEF862FB6A032B02D16FF0860396
:2015600000E0FB6A18463037BD4680BD19FA061080B58EB002AFC7E902017A603B6007F1B4
:201580000803FB6108233B623B1D7B620423BB62BB6B7B613B68BB61FB6B002B02D16FF01F
:2015A00086030FE007F11C0107F1140201230093134602220548FFF7AFFEF862BA69FB6B89
:2015C0001A60FB6A18463037BD4680BDD1FB061080B58CB002AFC7E902017A6007F1080393
:2015E000FB6108233B627B687B610C23BB6107F11C0107F11402012300931346012204481B
:20160000FFF78AFE78627B6A18462837BD4680BDD9F9061080B588B002AFC7E900013B4658
:20162000FB6008233B6107F10C0100230093002301220448FFF770FE78617B69184618376D
:20164000BD4680BD79FA061080B586B002AF0023FB6007F10C037B600423BB603A1D012388
:2016600000931346002200210348FFF755FEFB6818461037BD4680BD61FB061080B58EB07A
:2016800002AFC7E902017A603B6007F108037B610823BB613B68FB617B683B6207F1380399
:2016A0007B620423BB6207F1140100230093002303220748FFF730FEF862FB6A032B02D1CB
:2016C0006FF0860300E0FB6A18463037BD4680BDA9FB061080B58EB002AFC7E902017A606D
:2016E0003B6007F10803FB6108233B623B1D7B620423BB62BB6B7B613B68BB61FB6B002B5D
:2017000002D16FF0860315E007F11C0107F1140201230093134602220848FFF7FDFDF86228
:20172000FB6A032B02D16FF0860303E0BA69FB6B1A60FB6A18463037BD4680BDF9F9061003
:2017400080B58CB002AFC7E902017A6007F10803FB6108233B627B687B610C23BB6107F1B1
:201760001C0107F1140201230093134601220748FFF7D2FD78627B6A032B02D16FF086034F
:2017800000E07B6A18462837BD4680BDC1FA061080B586B002AFC7E900013B46BB60082322
:2017A000FB6007F1080100230093002301220448FFF7B2FD034618461037BD4680BD00BFF3
:2017C000E9FA061080B594B002AF7860396007F120032822002118461EF0E1FF02233B62E1
:2017E00007F120033B6128237B613B1DBB610423FB613B68BB600223FB6007F1100107F1D5
:20180000080201230093134602220448FFF784FD034618464837BD4680BD00BF11F9061082
:2018200080B590B002AF0346FB8007F110032822002118461EF0B3FF03233B61FB88FB8268
:2018400007F11003BB602823FB6007F1080100230093002301220448FFF75EFD034618467B
:201860003837BD4680BD00BFB9FB061080B59AB002AFF860B9607A603B6007F134032822A1
:20188000002118461EF08BFF04237B6307F13403FB6128233B62FB687B622423BB62BB68F2
:2018A000FB627B683B633B687B610223BB6107F11C0107F1140201230093134603220448E6
:2018C000FFF72AFDF865FB6D18466037BD4680BD69F9061080B592B002AF0346FB8007F195
:2018E00014032822002118461EF059FF05237B61FB887B8307F11403FB6028233B6107F1D4
:201900000C0100230093002301220448FFF704FDF863FB6B18464037BD4680BD59FB06103B
:2019200080B594B002AF03463960FB8007F11C032822002118461EF032FFFB887B8407F187
:201940001C037B612823BB613B68FB6024233B6107F1140107F10C020123009313460122FE
:201960000448FFF7D9FC78647B6C18464837BD4680BD00BFE1F9061080B592B002AF7860C1
:2019800007F118032822002118461EF008FF0123BB6107F118033B6128237B617B68BB6042
:2019A0002423FB6007F1100107F1080201230093134601220348FFF7AFFC00BF4037BD4622
:2019C00080BD00BFB9FA061080B596B002AFB9607A603B600346FB8107F124032822002139
:2019E00018461EF0DCFE06237B62FB897B8507F12403FB6128233B62BB687B617B68BB61B6
:201A000007F11C0107F1140201230093134601220548FFF781FCF864BA693B681A60FB6CAD
:201A200018465037BD4680BD71F9061080B598B002AFF860B9607A6007F12C0328220021F6
:201A400018461EF0ACFE1E23FB62FB681B68BB6307F12C03FB6128233B62BB687B627B6880
:201A6000BB62FB687B610423BB6107F11C0107F1140201230093134602220448FFF74CFCE6
:201A800078657B6D18465837BD4680BD59F9061080B596B002AFF8600B467A607B8107F149
:201AA00024032822002118461EF079FE1B237B627B897B857B68FB62FB681B683B6307F1D6
:201AC0002403FB6128233B62FB687B610423BB6107F11C0107F114020123009313460122C3
:201AE0000448FFF719FCF864FB6C18465037BD4680BD00BFE9FB061080B596B002AFF8606A
:201B00000B467A607B8107F124032822002118461EF045FE1C237B627B897B857B68FB6205
:201B2000FB681B683B6307F12403FB6128233B62FB687B610423BB6107F11C0107F1140219
:201B400001230093134601220448FFF7E5FBF864FB6C18465037BD4680BD00BF29FB06104F
:201B600080B59AB002AFF860B9607A603B6007F134032822002118461EF011FE1F237B631A
:201B8000FB681B683B6407F134037B622823BB62BB68FB627B683B63FB687B610423BB61C9
:201BA0003B68FB61BB6E3B6207F1240107F1140202230093134602220548FFF7ADFBF865B8
:201BC0003A6AFB6E1A60FB6D18466037BD4680BD19F9061080B594B002AF786007F11C03A0
:201BE0002822002118461EF0DAFD2123FB617B681B68BB6207F11C037B612823BB617B68D7
:201C0000FB6004233B6107F1140107F10C0201230093134601220448FFF77EFB78647B6CE2
:201C200018464837BD4680BDA1F9061080B598B002AFF860B9607A603B6007F12C03282252
:201C4000002118461EF0ABFD2023FB62FB681B68BB6307F12C037B622823BB62FB687B6100
:201C60000423BB61BB68FB617B683B6207F1240107F1140202230093134601220548FFF780
:201C80004BFB78653A6A3B681A607B6D18465837BD4680BD21F9061080B594B002AF786019
:201CA000396007F11C032822002118461EF077FD0B23FB613B687B627B681B68BB6207F1A4
:201CC0001C037B612823BB617B68FB6004233B6107F1140107F10C0201230093134601225B
:201CE0000448FFF719FB78647B6C18464837BD4680BD00BF19FB061080B598B002AFF8603F
:201D0000B9607A6007F12C032822002118461EF046FD0C23FB62FB681B68BB6307F12C03D8
:201D2000FB6128233B62BB687B627B68BB62FB687B610423BB6107F11C0107F11402012396
:201D40000093134602220448FFF7E6FA78657B6D18465837BD4680BDD1FA061080B598B001
:201D600002AFF860B9607A603B6007F12C032822002118461EF013FD0D23FB62FB681B684B
:201D8000BB6307F12C037B622823BB62FB687B610423BB61BB68FB617B683B6207F124011B
:201DA00007F1140202230093134601220548FFF7B3FA78653A6A3B681A607B6D184658377E
:201DC000BD4680BDC9F9061080B598B002AFF860B9607A6007F12C032822002118461EF074
:201DE000DEFC0E23FB62FB681B68BB6307F12C03FB6128233B62BB687B627B68BB62FB68A9
:201E00007B610423BB6107F11C0107F1140201230093134602220448FFF77EFA78657B6DCD
:201E200018465837BD4680BDF1F9061080B596B002AFF8600B467A607B8107F12403282261
:201E4000002118461EF0ABFC14237B627B897B857B68FB62FB681B683B6307F12403FB61F7
:201E600028233B62FB687B610423BB6107F11C0107F1140201230093134601220448FFF760
:201E80004BFAF864FB6C18465037BD4680BD00BFC9FA061080B598B002AFF860B9607A6004
:201EA00007F12C032822002118461EF078FC1523FB62FB681B68BB6307F12C03FB61282349
:201EC0003B62BB687B627B68BB62FB687B610423BB6107F11C0107F11402012300931346B0
:201EE00002220448FFF718FA78657B6D18465837BD4680BD99FA061080B598B002AFF86049
:201F0000B9607A6007F12C032822002118461EF046FC1723FB62FB681B68BB6307F12C03CC
:201F2000FB6128233B62BB687B627B68BB62FB687B610423BB6107F11C0107F11402012394
:201F40000093134602220448FFF7E6F978657B6D18465837BD4680BD01F9061080B59AB0CF
:201F600002AFB9607A603B600346FB8107F130032822002118461EF012FC22233B63FB89E6
:201F8000FB86BB68BB633B687B65BB6E002B05D1FB6E002B02D06FF0860340E00023FB65E1
:201FA00007F13003BB612823FB613B6F3B627B6F7B62BB6EBB62FB6EFB62BB6F3B61FB6FE9
:201FC0007B613B68102B02D96FF0860327E07B68002B13D00023FB650CE07A68FB6D13447C
:201FE000197807F14402FB6D13440A461A70FB6D0133FB65FA6D3B689A42EED307F11801C5
:2020000007F1100201230093134603220648FFF783F9B8657A69D7F880301A60BB6D184642
:202020006037BD4680BD00BF21FA061080B59AB002AFB9607A603B600346FB8107F130032B
:202040002822002118461EF0AAFB23233B63FB89FB86BB68BB633B687B65BB6E002B05D12D
:20206000FB6E002B02D06FF0860340E00023FB6507F13003BB612823FB613B6F3B627B6F50
:202080007B62BB6EBB62FB6EFB62BB6F3B61FB6F7B613B68102B02D96FF0860327E07B68C0
:2020A000002B13D00023FB650CE07A68FB6D1344197807F14402FB6D13440A461A70FB6D32
:2020C0000133FB65FA6D3B689A42EED307F1180107F1100201230093134603220648FFF731
:2020E0001BF9B8657A69D7F880301A60BB6D18466037BD4680BD00BF69FA061080B598B0C1
:2021000002AFB9607A603B600346FB8107F12C032822002118461EF042FB2E23FB62FB894E
:202120007B86BB687B6307F12C03FB6128233B627B687B623B68BB623B6E7B617B6EBB6128
:2021400007F11C0107F1140201230093134602220548FFF7E1F87865BA69BB6E1A607B6D81
:2021600018465837BD4680BDE1F8061080B598B002AFB9607A603B600346FB8107F12C039B
:202180002822002118461EF00AFB2F23FB62FB897B86BB687B6307F12C037B612823BB61C4
:2021A0007B68FB613B683B623B6E7B627B6EBB6207F1140100230093002303220448FFF7C7
:2021C000ABF878657B6D18465837BD4680BD00BFE9F9061080B487B000AFF860B9607A604E
:2021E0003B606FF085037B617B6918461C37BD4680BC704780B58CB002AFF860B9607A6089
:202200003B60FB68FB61BB683B627B687B613B68BB6107F11C0107F11402012300931346F3
:2022200001220748FFF778F878627B6A002B02D1BA693B6B1A607B6A18462837BD4680BDE4
:2022400031FB061080B588B002AF786039603B1D3B6104237B613B68BB600423FB6007F17E
:20226000100107F1080201230093134601220448FFF752F8034618461837BD4680BD00BF97
:20228000F1FA061080B58EB002AFF860B9607A603B60FB687B61BB68BB613B68FB61022391
:2022A0003B627B687B620423BB6207F11402032300931346002200210448FFF72DF8F86259
:2022C000FB6A18463037BD4680BD00BFA1FB061080B582B000AF78607B6818461EF054FB97
:2022E0000346002B01D1012300E0002318460837BD4680BD80B584B000AF01F063F9B86017
:20230000B86801F04DF978600023FB6013E00F4AFB6852F83330796818461EF0DFFA034645
:20232000002B05D1094AFB68DB0013445B6808E0FB680133FB60064B1B68FA689A42E6D34C
:20234000002318461037BD4680BD00BF280010286000102801DF704700BF184680B582B0A3
:2023600000AFFFF7C7FF78607B68002B01D1002303E07868FFF7EEFF034618460837BD4688
:2023800080BD00001EF0040F0CBFEFF30880EFF30980816911F8021C002933D101B590E8D3
:2023A0000F10E047BDE800508CE803003C4B93E80600914208BF704769B1086C20B10EB5F0
:2023C0001EF002FBBDE80E40EFF3098020E9F00F886381F822E01A60106C18B10CB41EF099
:2023E000E3FA0CBC106B92F8221080F30B88906B61F0FF0E1EF0400F01D1B0E8F00F80F369
:2024000009887047274A13689942FAD801B552F821C00FC8E047BDE80050CCF8000070478C
:2024200001B500F079F8BDE8014000F007B801B500F03AF8BDE8014000F000B8184B93E8AC
:202440000600914208BF7047086C50B10EB51EF0BBFABDE80E401EF0400F18BFEFF3098098
:2024600003D1EFF3098020E9F00F886381F822E01A60106C18B10CB41EF096FA0CBC106B4F
:2024800092F8221080F30B88906B61F0FF0E1EF0400F01D1B0E8F00F80F3098870470000A0
:2024A00078001028800B120038B51A4C01F026FAE368226D0133E36002B1904700F0BAFCEA
:2024C000002000F019FD236C13B3A16BA269914202D0A263E36338BDE36B13B1013BE363F1
:2024E000B3B9237A022B13D1656A8DB191F9203095F920209A420BD1284600F067FCA06B89
:2025000000F06EFC284600F0EDFC236CA563E36338BD00BF6400102870B5264E06F1560403
:2025200006F15A05B6F85420D4E85F3F13B9BFF32F8F04E0591EC4E8501F00B1F4E79BB23E
:20254000002B32D0D5E85F3F591C8A4200D80021C5E8501F00B1F5E79BB2F26D52F82300F7
:2025600018B30378013B062BDCD801A252F823F0A5251000252510009F2510002525100092
:2025800099251000932510008D251000336F9847C8E7F36E9847C5E7B36E9847C2E7736E3D
:2025A0009847BFE7336E9847BCE70020BDE8704000F0A2BC640010281A4A70B4B2F854305E
:2025C00002F15605D5E85F4FA34202D8BFF32F8F04E0611CC5E8561F06B1F3E7A4B2A342C4
:2025E0001BD902F15805D5E85F4F611C8B4200D80021C5E8561F06B1F5E7A3B2D16D41F868
:202600002300537A1BB10123937270BC7047064B4FF0805270BC5A6070470146022070BC5E
:20262000FEF76EBA6400102800ED00E0F8B54FF6FE730D46411E0446994221D8A8421FD305
:2026400002B393681768CBB113F0030118D1D2680F2A15D90A46154E9A704FF0050C4FF032
:20266000010E0021124A18465F609D81DC8183F800C083F801E09960B266F8BDD36813B1DA
:202680000020F8BD1746094ED6F8980030B101F063F90346002BF3D00122DDE701221021AB
:2026A000D6F8800001F0C8F90346F3E764001028B526100010B542780346BAB18268AAB1F8
:2026C0000C33D3E85F2F12B9BFF32F8F04E0511EC3E8541F04B1F4E792B23AB100F03AFBE2
:2026E0000022BDE81040114600F0A0BC10BD00BF70B5034618B30278052A20D14278DAB17C
:2027000082683AB100F026FB0122002100F08EFC002070BD0C30DC89D0E85F1F8C4202D849
:20272000BFF32F8F04E04D1CC0E8565F06B1F3E789B2DB898B42EBD86FF0020070BD6FF0D2
:20274000030070BD38B50C46034618B30278052A20D1427882B10C33D3E85F2F12B9BFF36A
:202760002F8F04E0511EC3E8551F05B1F4E792B20AB1002038BD14B96FF0020038BD074B0F
:20278000596900F0C3FA2146632000F0DDFD6FF0010038BD6FF0030038BD00BF640010280F
:2027A00038B5044660B30378052B29D14378F3B100228368427063B1204600F0CBFA0022BB
:2027C0006FF0020100F032FCA0680028F4D100F093FBA07810F001000BD00B4B2146D3F88A
:2027E00098503DB1284601F0DDF8002038BD6FF0020038BDD3F8800001F052F9284638BD7A
:202800006FF0030038BD00BF64001028EFF305834BB9EFF3108333B9EFF311831BB9DFF816
:202820000CC000DF70470020704700BF2D26100010B403460A46EFF3058454B9EFF31084F2
:202840003CB9EFF3118424B9DFF848C000DF10BC7047DBB11978052918D1101C18BF012096
:20286000A0B95A7872B10C33D3E85F2F12B9BFF32F8F04E0511EC3E8541F04B1F4E792B202
:20288000002AE4D16FF0020010BC70476FF00300DDE700BF4527100038B50346EFF3058275
:2028A0004AB9EFF3108232B9EFF311821AB9DFF850C000DF38BDFBB11A78052A1CD15A7887
:2028C000BAB103F10C02D889D2E85F1F884202D8BFF32F8F04E04C1CC2E8554F05B1F3E7B4
:2028E0008AB2D989914204D91846FFF765FE002038BD6FF0020038BD6FF0030038BD00BF52
:20290000F1261000EFF305834BB9EFF3108333B9EFF311831BB9DFF80CC000DF70476FF0DF
:2029200005007047A1271000F8B5E0B1836890E83000A3B113F0030113D1C2681B2A10D99B
:202940000022042701269970DD7018465C601F705E709A60DA601A615A611A76F8BDC3685C
:202960001BB10020F8BD04460546094BD3F8940030B100F0F1FF0346002BF2D00121DFE78F
:20298000D3F8800001221C2101F056F80346F3E764001028274B30B50D46596983B00446A5
:2029A000002944D0002831D00378042B2ED1437843B3037E5BB9CA6AC1604261036102B1B3
:2029C000106101230020CC62237603B030BDC278D00702D5E06881421CD09DB1930706D539
:2029E000E06891F9203090F920209A4218DB204600F08CF92946532000F0A6FC6FF001006E
:202A000003B030BD6FF0020003B030BD6FF0030003B030BDFF2BF5D0013300202376D4E77C
:202A200080F82030019100F09FF90199DFE74FF0FF30CAE76400102838B52B4B044658692B
:202A400000284ED0002C47D02378042B44D16378002B3ED0E36898423BD1237E002B38D0F5
:202A6000013BDBB22376002B31D163690BB122691A612269002A32D05361E3789B070FD5ED
:202A8000C36A90F921104BB19A6822B192F920209142B8BF11465B69002BF5D180F82010B5
:202AA000A3687BB1204600F055F900220546114600F0BCFAE96A00220123E56061612261AE
:202AC000EC622376002000F017FA002038BD002038BD6FF0020038BD6FF0030038BDC362F2
:202AE000CBE74FF0FF3038BD640010282DE9F0410446D8B100274FF00108E37865691B0751
:202B000011D5A368204627766BB100F023F900220646114600F08AFAF36AE6606361276171
:202B2000F46284F818802C46002DE6D1BDE8F081EFF305834BB9EFF3108333B9EFF311837A
:202B40001BB9DFF80CC000DF70470020704700BF29291000EFF305834BB9EFF3108333B9A1
:202B6000EFF311831BB9DFF80CC000DF70476FF00500704795291000EFF305834BB9EFF399
:202B8000108333B9EFF311831BB9DFF80CC000DF70476FF005007047392A100038B1037841
:202BA000012B05D143780BB1406870471846704700207047014B5869704700BF6400102832
:202BC00048B10378012B06D1437813F0FB0F02D090F9200070474FF0FF307047DFF804C0C4
:202BE00000DFFEE7113410004378332B30B401D030BC704790F82320416A950744D412F01F
:202C0000010F00F1280246D052E8003F03EA01048C4203D0BFF32F8F002305E023EA0104DD
:202C200042E8004505B1EFE7002BE1D0826B1362C16943694A1C47D0002B50D00269314DD4
:202C400032B1D469536121444369D161002B4DD000211A614161012390F9204043706A6A43
:202C6000002A45D092F92030A34205DA25E093F920108C4223DC1A469368002BF7D1002377
:202C8000C26083609060B3E7D407836A12D531EA0302ADD1C8E752E8003F0B4203D1BFF35D
:202CA0002F8F002305E023EA010442E8004505B1F1E7B9E719429BD0B8E71346124AC26063
:202CC00083609060D86093E7A3B102690D4D002ABED053614369002BBAD12A63BBE7094D03
:202CE000EA6A9042B7D10269002AAAD1EA62B2E7054AC4E7034D2A6B9042ACD10269002A6E
:202D0000EBD0E6E7640010288000102810B4A1B1826891F92040D2B192F92030A34205DACB
:202D20000DE093F9200084420BDC1A469368002BF7D10023CA608B60916010BC70471346FA
:202D40000246CA608B6010BC9160D96070470246EFE700BF83682BB19A68826002B1D060FE
:202D60000022DA601846704710B4034601E0DB6803B31A78012AFAD0C26832B1816891608D
:202D8000816801B1CA600022C260996890F92040D1B191F92020A24205DA0DE092F9203069
:202DA0009C420BDC11468A68002AF7D10023C1608360886010BC70470A461946C1608260CF
:202DC00010BC8860D06070471946EFE7C36833B182689A60826802B1D3600023C360704763
:202DE0000123134943704A6A10B490F92040DAB192F92030A34205DA0DE093F920108C429E
:202E00000CDC1A469368002BF7D10023C26010BC836090607047134601F11C02C260836073
:202E200010BC9060D860704701F11C02EDE700BF64001028F0B51E4EF06A002834D0C569E3
:202E4000013DC561002D2FD1012706F11C0EC3682BB182689A60826802B1D360C560477001
:202E6000726A90F9204002B392F92030A34205DA13E093F920108C4211DC1A469368002B49
:202E8000F7D1C26085609060006920B1C369002BDDD000234361F062F0BD13467246C2603C
:202EA00083609060D860EFE7F0BD7246E9E700BF64001028806B2030704700BF074B5969DC
:202EC00051B10B6B8A6B934203D21A68044B9A4202D00120FDF714BE704700BF6400102863
:202EE000A52E5AE2022208B5024B42709861FFF7E5FF08BD640010284A4970B54D690B7ABC
:202F0000002849D0022B90F9204015D1A5B195F92060B44210DD01236B704A6A002A7ED002
:202F200092F92030B3422ADC134601F11C02EA60AB609560DD6029E0012343704A6A002A0D
:202F40006BD092F92030A34205DA0CE093F92010A1420ADB1A469368002BF7D10023C26094
:202F60008360906070BD13462F4AC26083609060D86070BD93F92040A642D8DA1A46936844
:202F8000002BF7D10023EA60AB609560022343708861FFF793FF70BDA3F10203002D4E6ADD
:202FA000B3FA83F34FEA531308BF0023002BD9D0002ED7D095F9204096F92030A342D1DD5C
:202FC000F36833B1B2689A60B26802B1D3600023F36001236B704A6AB2B192F92030A34252
:202FE00005DC13E093F92000844211DA1A469368002BF7D10023EA60AB60956002237370DD
:203000008E61FFF75BFF70BD074AF3E71346064AEA60AB609560DD60F0E7034A9EE701F14E
:203020001C02AFE76400102880001028836B30B41962C4694369611C33D0002B43D001693A
:2030400031B1CD694B612C444369CC61002B37D0002419614461002A2FD10123234990F9AB
:20306000204043704A6A002A3DD092F92030A34205DA0DE093F920108C420CDC1A469368F9
:20308000002BF7D10023C2608360906030BC7047134601F11C02C26083609060D86030BC00
:2030A0007047C3B101690029D2D04B614369002BCED10E4D2963002ACFD030BCFFF71CBF21
:2030C0000A4DE962C7E7094DE96A8842C3D101690029F6D0B5E7054D296B8842BBD10169FE
:2030E0000029E7D0E1E701F11C02CBE7640010282DE9F04F8A4685B08146002800F085808C
:20310000002A00F0B580946816695769002C00F0C980A50779D1D368432B76D91EB170078C
:2031200073D1002F71D0D2F81880B8F1000F68D14FF018081FB1790767D1472F65D9136872
:20314000D56900935368002C00F0998012224FF0000B002E5FD0002D73D12846744DA7F19B
:203160004002E3704FFA88F82968B218009B01250191002163604FF0BC0E6E4BA160E1605B
:2031800021616161A161E16184F823106162A162E162019984F802B084F8208084F82180EE
:2031A00026636763C4F83C902064A2632570657084F822E033604B072BD5BF080436112F9D
:2031C00007D05D4A3046CC213A44920016441DF0E6FA342200213046584D1DF0E0FA4FF0FF
:2031E0008071574B2046574AC6F83890C6F820A07563F1631A66FFF77FFE204605B0BDE852
:20320000F08F08F1FF33372B94D9002005B0BDE8F08FA66BDDE70192002F61D1484A444954
:20322000D2F8840002924F6D002877D0039300F093FB039B0646019A002842D09346002DA8
:203240008BD0284601931DF0CFFB019B002885D11BF0020F2BD11BF0010FD6D0384B21465D
:20326000D3F88850002D35D0284600F09BFBCCE715464FF018081746164613460092304AFA
:203280000193D2F8880000283FD000F065FB019B0446002CB9D013224FF0010B002E7FF405
:2032A0005AAFB8E7D368002B3FF438AFADE71BF0100F234B216B24D0D3F8840000F072FB8E
:2032C000C9E7BBF1000FA0D0029B2146D3F88850002DC9D1D3F8800000F0E2FB28468DE7AB
:2032E00001933246164B3946586F029300F0A4FB019B0646002EE4D04BF00202D2B2934691
:203300009DE7586F00F0CCFBA5E7D2F880004421012200F091FB019B0446BAE7019332463E
:20332000029B3946586F00F087FB019B0646E1E7E00A1200A52E5AE2EFFFFF3FDD2B100039
:2033400064001028E92B100038B52F4C6269002A3DD0237A022B0AD0D06838B193688360A0
:20336000936803B1D8600020D06038BD38BD636A002B2AD04B1C50702BD0E56A002D36D096
:20338000E869814204D232E0D869884204D81D462B69091A002BF7D1D161556113612A6156
:2033A0001BB1D8695A61411AD961636A33B19A6862620AB11549D1600022DA6002225A70A5
:2033C000A361FFF77BFD012038BD184638BD104638BD206B08B911E018460369002BFBD1C9
:2033E0004FF0FF3150611361D1610261DDE70020D16115612B465061E262D1E7D161506117
:2034000010612263D1E700BF640010288000102870B5584E7569002D35D0E86AFFF766FB67
:20342000A86900282CD0836B00221A62C16943694C1C6AD0002B76D0026932B1D4695361A3
:2034400021444369D161002B73D000211A614161012390F920404370726A002A7FD092F9DD
:203460002030A34205DA46E093F920108C4244DC1A469368002BF7D10023C2608360906002
:20348000337A022B00D070BD736A002BFBD0EFF30982736AAA6333B19A6872620AB1364937
:2034A000D1600022DA6002225A70B361FFF706FD00237361EB78D80702D5AB69002B3FD026
:2034C0000023286C6B7000282AD1AB78990707D5DA06296B2FD5D6F8840000F063FAAB785E
:2034E000DB07D0D5D6F888002946002831D0BDE8704000F057BA13461F4A8360C26090604A
:20350000D860337A022BBED1BEE7002B29D00269002A9AD053614369002B96D1326397E73D
:203520001DF02AFAD1E7F26A904291D10269002A84D1F2628CE7706F00F0B2FAAB78CFE70D
:203540000422EB606A70736BAB6003B1DD60756370BDD6F88000BDE8704000F0A1BA064A03
:203560008AE7326B90427FF473AF0269002AD5D0D0E700BF6400102880001028EFF3058368
:203580004BB9EFF3108333B9EFF311831BB9DFF80CC000DF70470020704700BFF13010007C
:2035A000EFF305834BB9EFF3108333B9EFF311831BB9DFF80CC000DF70470020704700BF23
:2035C0009D2B1000EFF305834BB9EFF3108333B9EFF311831BB9DFF80CC000DF70470020A1
:2035E000704700BFB52B1000EFF305834BB9EFF3108333B9EFF311831BB9DFF80CC000DFCA
:2036000070474FF0FF307047C12B100070B52A4C237A012B45D1A16A284D00293AD06B6ECC
:2036200013B1A16C00293FD0254AFF2382F8223092F82230D26863F0FF03C2F30222DB43C2
:20364000B3FA83F3C3F12003934221D9FE221C4E1C4902FA03F36868DBB2F37700F014F9FC
:20366000F8B900F051F9206100F032F9C8B91648FFF770FBA8B1FFF735FC2B68DB074CBF83
:203680000223032383F3148802230020237270BD531CDBE70D48AA6DFFF72AFDA0620028E2
:2036A000BDD14FF0FF3070BDEA6D0948FFF720FDA0640028B8D1F4E764001028E00A1200FE
:2036C00000ED00E02F24100080001028F50A1000B93B1000F8B5584D297A012900F0A680BA
:2036E000002940F0A580554C9C2205F108001DF056F8636D472B40F29B80E368002B00F09F
:203700009780228A002A00F09380E66AA7683046216BEB65A5F854202F6400F071F908B151
:20372000C5F880606769A169384600F069F9002879D0E669216A30466F6700F061F9002839
:203740006ED0676AA16A3846AE6700F059F900285FD0666BEF6746B1F3683046B268316881
:2037600000F0D6F808B1C5F88460A66B46B1F3683046B268316800F0CBF808B1C5F8886094
:20378000E66B46B1F3683046B268316800F0C0F808B1C5F88C60266C46B1F3683046B268DF
:2037A000316800F0B5F808B1C5F89060666C46B1F3683046B268316800F0AAF808B1C5F818
:2037C0009460A66C46B1F3683046B268316800F09FF808B1C5F89860E66C46B1F368304659
:2037E000B268316800F094F808B1C5F89C60246D44B1E3682046A268216800F089F808B134
:20380000C5F8A0401DF000F990B1012300202B72F8BDD5F88070666BEF67002E9CD1A4E724
:20382000D5F880608DE7D5F8807082E70020F8BD4FF0FF30F8BD00BF64001028E00A1200F2
:20384000EFF305834BB9EFF3108333B9EFF311831BB9DFF80CC000DF70476FF005007047FB
:20386000D5361000EFF305834BB9EFF3108333B9EFF311831BB9DFF80CC000DF70476FF07C
:20388000050070470D36100070B4B0B10C4B1B68B3FBF0F3013BB3F1807F0ED200220948F7
:2038A000FF2609490625094C80F8236010460D604B608A60227070BC70474FF0FF30FAE7FA
:2038C0000000102800ED00E010E000E008411028074B1A782AB10020064A4FF080611870BB
:2038E0005160054A0020136843F00103136070470841102800ED00E010E000E0014B002042
:203900001B68704710E000E04FF0FF30704700BF70B4F0B1E9B1E2B1B3FA83F46409C4B9B9
:2039200002FB01F50160013903EB050644608260C3604361066107D01846841801390460DD
:203940002046FAD1AA1A1344002201201A6070BC7047002070BC704730B4F8B1031D026861
:2039600053E8001F8A4202D8BFF32F8F04E04C1C43E8004505B1F3E703688B420ED900F17B
:20398000140353E8000F10B9BFF32F8F04E0026843E8002101B1F4E730BC7047002030BCB7
:2039A000704700BF30B4002823D0C3688B4220D8036999421DD2031D53E8002F12B9BFF365
:2039C0002F8F04E0541E43E8004505B1F4E79AB1143003680B60BFF35F8F50E8003F0A68E4
:2039E0009A42F6D140E8001404B1F2E7002030BC70476FF00300FAE76FF00200F7E700BF56
:203A000030B40346A0B140EA0102500710D117298CBF002201225AB9A1F108041025196094
:203A20000120E1185D609960E250DA6030BC7047002030BC704700BFF0B440B3B1FA81F36F
:203A40005B0923BB32F0030421D10F3100F10805846821F0070703E023682546A3B11C4631
:203A60006E68631B26F003015B1A9F42F4D843683B44174343606EB16B186C5003F1080035
:203A80005F602B60F0BC70471846F0BC70470020F0BC704705F108006F60F0BC704700BF46
:203AA00030B4F8B1B1FA81F35B09DBB9A1F1080400F10805AC4219D0836823B912E01A68B4
:203AC0001D4613465AB19C42F9D164680122436824F0030451F8081C1B1B4360296010469D
:203AE00030BC7047002230BC1046704765680122416825F00305491B41606360EFE700BFF5
:203B00002DE9F0412B4E746C002C3BD023694FF000080127013B2361ABB9E568A36805B1A1
:203B2000AB60002304F11801F06C1A46756400F025FB50B9E378012B0ED06770746C0CB3C0
:203B40002369002BE9D0BDE8F08121460320FCF7D7FFE378012BF0D1706C6269E0B10169A2
:203B60008A4204D21DE0196991420DD81846C368521A002BF7D12261A060E360C460746CBA
:203B8000002CDDD1BDE8F08122611969A0608A1AE3609C601A61F1E72261A060E06074645F
:203BA000CEE722610369C4F808809A1AE06084600261F4E7640010280E4B082110B50E4CCA
:203BC00082B01A6E586E00F0C7FAE06478B10B4B236500E0E06C4FF0FF330022694600F00B
:203BE00011FB0028F6D1009B01989847F2E702B010BD00BFE00A120064001028013B1000BC
:203C00002DE9F04F0F4683B0064600284FD000294DD0CD1CB0FA80F325F003050C35B5FADB
:203C200085F10B441F2B42DD05FB00FA002A5AD09468D2F8009013695169002C34D0A007A5
:203C400035D1D268332A32D9002B34D09A072ED18A4594BF0021012149BB002C45D08B4672
:203C6000DFF8F4804FF0000E4FF0080C012084F802B0C4F804902A4660703146676204F145
:203C80000C0084F800C0C4F808E0C4F828E0C4F82CE0C4F830E0FFF73BFE2E4B2046C8F812
:203CA000703003B0BDE8F08FD268002ACCD0002003B0BDE8F08F0029F9D1B4B1DFF898804F
:203CC0001A465146D8F87C00FFF7B6FE03460028EDD04FF0020B18465246002101931CF0C6
:203CE0005EFD019BBEE791461346DFF86C800193D8F8A00048B1FFF72FFE019B0446002C03
:203D0000D5D05BB14FF0010BACE701223421D8F88000FFF791FE019B0446F0E71A46514613
:203D2000D8F87C00FFF788FE034680B9D8F8A0002146019320B1FFF735FE019B1846B0E743
:203D4000D8F88000FFF7ACFE019B1846A9E74FF0030BC0E75D3D100064001028F8B5437847
:203D60000446D3B18678CEB1C5686B78ABB143688268002B6CD09A60A268002A66D0536079
:203D8000002605F10C07214666703846FFF70AFEAB6813B15B78932B2AD0F8BD85686B7854
:203DA000002BFAD0AB6813B15B78832B56D02B6B002B4FD0E0780021DA78824211D25A687C
:203DC00019461346002AF7D16260A160EC624C60283555E8003F5A1C45E8002101B1F8E74E
:203DE000F8BD6360A1609C600029F0D12C63EFE73846FFF7B1FD04460028CED02846FEF76A
:203E0000A9FF074632463146FFF710F93846FFF751F807466A6A04F10C00B9681CF09BFC1C
:203E200001230722A67063702270397BE1702B6B83B1DA788A4230D25A681E461346002A22
:203E4000F7D16260A660EC627460C1E72B6397E7EA6291E76360A360EC62C7E72846FEF713
:203E600079FF074632463146FFF7E0F83846FFF721F806466A6A04F10C0180681CF06BFCB6
:203E8000F3680BB1E2781A70002305F10C0021466370BDE8F840FFF785BD6360A6609C60EE
:203EA000002ED1D1A2E700BF2DE9F0410F46164698460446002874D00278082A71D1B1FAC5
:203EC00081F56D09002D6CD142783AB3826812B15378832B3BD004F10C00FFF73DFD054638
:203EE000C8B13946626A0C301CF035FC012307220021EE702A706B70A970236B13B3DA7885
:203F0000B2420FD25A6819461346002AF7D16A60A960E5620AE0B8F1000F31D16FF0020041
:203F2000BDE8F0816B60A9609D6071B14D60283454E8003F5A1C44E8002101B1F8E7002080
:203F4000BDE8F0816B60AB60E5622563EFE7FEF701FF804601222946FFF768F84046FEF7B2
:203F6000A9FF8046626A394680681CF0F4FBD8F80C0018B106702846BDE8F081BDE8F081F0
:203F80000A4B20465969FEF7C1FE41469320FFF7DBF9EFF309836FF001009F60DE60BDE83C
:203FA000F0816FF00300BDE8F08100BF640010282DE9F0410E4682B017469E4680460028C1
:203FC00000F0BF800278082A40F0BB80002900F0B8804278002A2CD000F1280555E8002FE0
:203FE00012B9BFF32F8F04E0511E45E8001000B1F4E7DAB1D8F82C40C4B1A21C0121D2E894
:204000004F0FC2E8431F03B1F9E710F0FF0F09D114E0D2E84F0FC2E8431F03B1F9E710F00E
:20402000FF0F0BD0A468A21C002CF2D1BEF1000F73D16FF0020002B0BDE8F0816368002BBD
:204040005AD0A2689A60A268002A5BD053603046D8F8242004F10C011CF07DFB0FB1E378F5
:204060003B70002608F10C07214666703846FFF799FCD8F8083013B15B78932B03D00020CD
:2040800002B0BDE8F0813846FFF766FC04460028F5D04046FEF75EFE074601223146FEF798
:2040A000C5FF3846FEF706FF0746D8F8242004F10C00B9681CF04FFB01230722A6706370B5
:2040C0002270397BE170D8F83030002B3CD0DA788A421AD25A681E461346002AF7D16260A5
:2040E000A660C8F82C40746055E8003F5A1C45E8002101B1F8E7C2E7A268C8F82C20A26820
:20410000002AA3D1C8F83030A1E76360A6609C60002EE8D1C8F83040E6E70E4A4046CDF80D
:2041200004E05169FEF7F2FDDDF804E083207146FFF70AF9EFF309836FF001009E60DF60E6
:204140009EE76FF003009BE76360A360C8F82C40E0E700BF64001028EFF305834BB9EFF392
:20416000108333B9EFF311831BB9DFF80CC000DF70470020704700BF013C10002DE9F04113
:2041800006460F4690461C46EFF3058555B9EFF310853DB9EFF3118525B9DFF864C000DF2F
:2041A000BDE8F0811EB33378082B20D1FFB1003418BF0124DCB97378EBB106F10C00FFF754
:2041C000CBFB0546B8B1726A39460C301CF0C3FA072201232846AC7085F803806F60AE6051
:2041E0002A706B70FEF7E8F92046BDE8F0816FF00300BDE8F0816FF00200BDE8F08100BF4A
:20420000A93E1000F8B505460F4616469E46EFF305844CB9EFF3108434B9EFF311841CB9FB
:20422000DFF89CC000DFF8BD002D45D02B78082B42D1002F40D0BEF1000F3DD16B78002B73
:2042400028D005F1280353E8002F12B9BFF32F8F04E0511E43E8001000B1F4E7D2B1EC6AAD
:20426000C4B1A31C0122D3E84F1FC3E8402F00B1F9E711F0FF0F09D10FE0D3E84F1FC3E867
:20428000402F00B1F9E711F0FF0F06D0A468A31C002CF2D16FF00200F8BD38466A6A04F122
:2042A0000C011CF058FA0EB1E37833702046E560FEF782F90020F8BD6FF00300F8BD00BF10
:2042C000B13F100080B500AF0349044810F01AF90346184680BD00BF08011028980C1200B5
:2042E00080B500AFFFF7EEFF0346184680BD000080B483B000AF0346FB7197F90730002B56
:204300000BDBFB7903F01F02064997F907305B09012000FA02F241F8232000BF0C37BD4625
:2043200080BC704700E100E080B584B000AF78600B23FB607B68FA680349044810F0BAF9C0
:2043400000BF1037BD4680BDD0011028FC0E120080B586B000AF786040F2E9333B6107F11E
:204360001003BB600423FB6007F108000023002201211CF041FB78617B69002B06D07B683D
:2043800095220549054810F0B5F902E07B6800221A701837BD4680BD300F1200A00F12000B
:2043A00080B58AB000AF78604FF47D733B6207F12003BB610423FB6107F11803BB6001232B
:2043C000FB6000233B6100237B6107F1080319460F4810F055FA78627B6A13F1040F05D011
:2043E000002B0AD17B6800221A700DE07B68B2220849094810F07EF906E07B68B52205497D
:20440000064810F077F900BF2837BD4680BD00BF81F90610300F1200DC0F120000101200C1
:2044200080B485B000AF786039600023FB600023FB601AE0FB68DB007A68134400225A60AA
:20444000FB68DB007A68134400221A60FB68DB003A68134400225A60FB68DB003A681344FF
:2044600000221A60FB680133FB60FB68032BE1D900BF1437BD4680BC704780B485B000AF4B
:20448000786039600023FB600023FB601DE0FB68DB007A68134408225A60FB68DA00FB68B7
:2044A000DB0079680B4479680A441A60FB68DB003A68134420225A60FB68DB003A681344DE
:2044C0003A681A60FB680133FB60FB68032BDED900BF1437BD4680BC7047000080B598B009
:2044E00000AF786007F13C032022002118461CF056F907F11C032022002118461CF04FF9B6
:2045000007F10C0300221A605A609A60DA6007F11C0207F13C0311461846FFF781FF00236F
:20452000FB6000233B6100237B610023BB6107F10C0319467C4810F0A3F9F865FB6D012B6C
:2045400006D07B68F0227949794810F0D3F8E8E007F11C0207F13C0311461846FFF78DFFF6
:2045600007F13C03FB6002233B6107F11C037B613B69C3F10403BB6107F10C0319466A4862
:2045800010F07EF9F865FB6D012B07D07B684FF481726649674810F0ADF8C2E007F11C0208
:2045A00007F13C0311461846FFF767FF07F13C03FB6002233B6107F11C037B610123BB612D
:2045C00007F10C031946584810F05AF9F865FB6D012B07D07B6840F215125449564810F043
:2045E00089F89EE007F11C0207F13C0311461846FFF743FF00237B6207F13C03FB600223CB
:204600003B6107F11C037B610123BB6107F10C031946454810F034F9F865FB6D012B07D0E3
:204620007B684FF497724149444810F063F878E007F11C0207F13C0311461846FFF71DFF6E
:2046400000233B6507F13C03FB6002233B6107F11C037B610123BB6107F10C031946324831
:2046600010F00EF9F865FB6D012B07D07B6840F243122E49314810F03DF852E007F11C0294
:2046800007F13C0311461846FFF7F7FE0023BB6400237B6407F13C03FB6002233B6107F1B4
:2046A0001C037B610223BB6107F10C0319461E4810F0E6F8F865FB6D012B07D07B6840F237
:2046C00057121A491E4810F015F82AE007F11C0207F13C0311461846FFF7CFFE0023BB628C
:2046E00000237B6207F13C03FB6002233B6107F11C037B610223BB6107F10C0319460A487B
:2047000010F0BEF8F865FB6D012B07D07B6840F26B1206490B480FF0EDFF02E07B68002215
:204720001A706037BD4680BDD9FB0610300F120024101200501012007C101200B8101200AD
:20474000F01012002811120080B5A8B000AF78606A4A07F1900392E80300186004331970F4
:20476000674A07F1840307CA03C31A800233120C1A7007F150032022002118461CF00FF8DC
:2047800007F190033B6505237B6507F18403BB650B23FB6507F130032022002118461BF0C2
:2047A000FEFF07F17C033B6305237B6307F17003BB630B23FB634FF47E73FB6207F15003F0
:2047C000FB6102233B6207F130037B620223BB6207F15003FB6001233B6100237B610023E9
:2047E000BB6107F11C031946464810F049F8C7F89800D7F89830002B07D07B6840F28D12B4
:20480000414942480FF076FF75E07B6B022B02D1FB6B052B07D07B6840F293123A493C48A7
:204820000FF068FF67E00123C7F89C301DE03A6BD7F89C30002B00DA01335B1013441A7852
:2048400007F19001D7F89C300B441B789A4207D07B684FF4CC722C492E480FF04BFF4AE0DD
:20486000D7F89C300233C7F89C30D7F89C30042BDDD90123C7F89C301DE0BA6BD7F89C30F1
:20488000002B00DA01335B1013441A7807F18401D7F89C300B441B789A4207D07B684FF4B8
:2048A000CF7219491B480FF025FF24E0D7F89C300233C7F89C30D7F89C300A2BDDD907F1F2
:2048C0002C033B6504237B6507F10C03194612480FF0D6FFC7F89800D7F89830002B07D07E
:2048E0007B6840F2AF1208490C480FF003FF02E07B6800221A70A037BD4680BD041212008C
:204900000C12120029F90610300F12006411120094111200C811120081F90610E011120022
:2049200080B582B000AF03463960FB71134AFB791370FB79052B18D801A252F823F000BF6C
:2049400059491000714910007149100071491000714910005F4910004FF0FF330AE03B68C7
:2049600000225A60FBF7F2FD03E04FF0FF3301E000BF002318460837BD4680BD0941102804
:2049800080B483B000AF03463960FB71FB79052B1ED801A252F823F0B1491000B7491000FF
:2049A000D7491000D7491000D7491000D74910004FF0FF3311E03B681B68002B02D06FF053
:2049C00002030AE000BF3B681B68002BFBD003E04FF0FF3301E000BF002318460C37BD4652
:2049E00080BC704780B500AFFBF7CEFD084B1B78002B09DB042B02DD052B01D004E0FEE756
:204A0000044B01225A6000E0FEE700BF80BD00BF094110280C41102880B58AB000AF03467C
:204A2000FB712E4B3B62FB79FB6107F11C03FB6004233B6107F120037B610423BB6107F1BD
:204A40000C000023002202211BF0A6FF78627B6A002B01D07B6A3DE007F10C00002300222C
:204A600002211BF0D9FF78627B6A002B01D07B6A30E0FB7919491846FFF752FF78627B6A46
:204A8000002B01D07B6A25E007F10C000023002201211BF0C9FF78627B6A002B01D07B6A52
:204AA00018E007F10C000023002201211BF084FF78627B6A002B01D07B6A0BE0FB790749B6
:204AC0001846FFF75DFF78627B6A002B01D07B6A00E0002318462837BD4680BD0C41102801
:204AE00080B584B000AF78600420FFF701FC0120FFF792FFF860FB68002B07D07B6840F235
:204B00005122234923480FF0F5FD3EE00220FFF783FFF860FB68002B07D07B6840F2572257
:204B20001B491D480FF0E6FD2FE00320FFF774FFF860FB68002B07D07B6840F25D22144981
:204B400016480FF0D7FD20E00420FFF765FFF860FB68002B07D07B6840F263220C491048A2
:204B60000FF0C8FD11E00520FFF756FFF860FB68002B07D07B6840F26922054909480FF015
:204B8000B9FD02E07B6800221A701037BD4680BD300F1200181212004012120068121200EA
:204BA00090121200B812120080B588B000AF786007F10C0300221A605A609A60DA6007F1E8
:204BC0000C0319460A480FF05BFEF861FB69002B07D07B6840F28322064907480FF08AFD20
:204BE00002E07B6800221A702037BD4680BD00BF89F90610300F1200E0121200B0B5A6B046
:204C000000AF78604A4B07F178041D460FCD0FC495E8030084E8030007F13803402200214D
:204C200018461BF0BCFD01237B6307F17803FB6218233B6307F13803FB6140233B6207F120
:204C400034037B620423BB6207F12C03FB6001233B6107F11C037B610223BB6107F10C037F
:204C6000194634480FF00CFEC7F89000D7F89030002B07D07B6840F2AE222F492F480FF09D
:204C800039FD52E07B6B002B44D10023C7F894301FE0D7F894309B0007F19802134453F87F
:204CA000602CD7F894309B0007F198010B4453F8203CDB439A4207D07B684FF42D721E49B6
:204CC0001F480FF017FD30E0D7F894300133C7F89430D7F89430052BDBD916E0D7F8943000
:204CE0009B0007F19802134453F8603C002B07D07B6840F2BA22104912480FF0FBFC14E0B9
:204D0000D7F894300133C7F89430D7F894300F2BE4D907E07B6840F2BF2207490A480FF041
:204D2000E9FC02E07B6800221A709837BD46B0BDA813120051F90610300F12000413120037
:204D400034131200601312008813120080B58AB000AF78604FF47C733B6207F12003BB61CC
:204D60000423FB6107F11803BB600123FB6000233B6100237B6107F1080319460A480FF092
:204D80007FFD78627B6A002B07D07B6840F2D722064907480FF0AEFC02E07B6800221A7010
:204DA0002837BD4680BD00BF81F90610300F1200C0131200B0B5A8B000AF7860614B07F1E7
:204DC00080041D460FCD0FC495E8030084E8030007F140034022002118461BF0E0FC062322
:204DE000FB6307F140037B634023BB6340F2F2333B6307F13003BB610423FB6107F1800381
:204E00003B6218237B6207F13C03BB620423FB6207F11803BB600323FB6007F134033B618B
:204E200001237B6107F10803194647480FF028FDC7F89800D7F898300933092B76D801A20E
:204E400052F823F0FD4E10000D4F10001D4F10002D4F10002D4F10002D4F10002D4F100082
:204E60002D4F10002D4F10006D4E10000023C7F89C301FE0D7F89C309B0007F1A00213447B
:204E800053F8602CD7F89C309B0007F1A0010B4453F8203CDB439A4207D07B6840F2FA2274
:204EA0002A492B480FF026FC48E0D7F89C300133C7F89C30D7F89C30052BDBD916E0D7F825
:204EC0009C309B0007F1A002134453F8603C002B07D07B684FF440721C491E480FF00AFCE9
:204EE0002CE0D7F89C300133C7F89C30D7F89C300F2BE4D97B6800221A701FE07B6840F217
:204F00000732124914480FF0F5FB17E07B6840F20A320E4911480FF0EDFB0FE07B6840F2CF
:204F20000D320A490E480FF0E5FB07E07B684FF4447206490B480FF0DDFB00BFA037BD46D5
:204F4000B0BD00BFA813120081F90610300F12003413120060131200E41312000814120062
:204F6000241412008813120080B58AB000AF786040F2F5333B6207F12003BB610423FB6193
:204F800007F11803BB600123FB6000233B6100237B6107F1080319460A480FF071FC7862AC
:204FA0007B6A002B07D07B684FF44872064907480FF0A0FB02E07B6800221A702837BD461F
:204FC00080BD00BF81F90610300F1200C013120080B58AB000AF786040F2F6333B6207F129
:204FE0002003BB610423FB6107F11803BB600123FB6000233B6100237B6107F10803194622
:205000000A480FF03DFC78627B6A002B07D07B6840F23732064907480FF06CFB02E07B68FE
:2050200000221A702837BD4680BD00BF81F90610300F12005414120080B584B000AF78601B
:205040001923FB607B68FA68034904480FF032FB00BF1037BD4680BD0403102814221200E3
:2050600080B582B000AF7860044A796804480FF037FC00BF0837BD4680BD00BF85501000B3
:205080005422120090B58BB002AF78604FF002034FF00004C7E9063400237B6100233B6150
:2050A00000233B7207F108027B69009313463A69D7E90601FCF730FAF860FB68002B06D00B
:2050C0007B68A822234924480FF014FB3EE007F108027B69009313463A69D7E90601FCF7F0
:2050E0001BFAF860FB68002B06D07B68AF2219491A480FF0FFFA29E007F108027B690093ED
:2051000013463A694FF000004FF00001FCF704FAF860FB6813F1870F06D07B68B6220D49E7
:205120000F480FF0E7FA11E0D7E90601FCF772FAF860FB68002B06D07B68BD220549094804
:205140000FF0D8FA02E07B6800221A702437BD4690BD00BF60221200D0221200F4221200E3
:20516000282312005423120080B582B000AF7860044A796804480FF0B3FB00BF0837BD4632
:2051800080BD00BF8D51100054221200B0B592B002AF78604FF003034FF00004C7E90E34F3
:2051A00000237B6321233B63294B07F108041D460FCD0FC40FCD0FC42B68238007F108029B
:2051C0007B6B009313463A6B4FF001004FF00001FCF7A2F9F862FB6A002B06D07B68D522B0
:2051E0001C491D480FF086FA2EE0012300931B4B24224FF001004FF00001FCF78DF9F862A2
:20520000FB6A002B06D07B68E122124914480FF071FA19E007F108024FF0004300931346B8
:205220003A6BD7E90E01FCF777F9F862FB6A13F1860F06D07B68E82206490A480FF05AFA88
:2052400002E07B6800221A704037BD46B0BD00BF2C241200602212007C231200A0231200BB
:20526000C82312000024120080B582B000AF7860044A796804480FF033FB00BF0837BD4664
:2052800080BD00BF8D5210005422120090B58BB002AF78604FF004034FF00004C7E906341F
:2052A00000237B6100233B617B69009300233A69D7E90601FCF730F9F860FB68002B07D053
:2052C0007B684FF48172054905480FF013FA02E07B6800221A702437BD4690BD602212005E
:2052E0005024120080B582B000AF7860044A796804480FF0F5FA00BF0837BD4680BD00BFD4
:205300000953100054221200B0B5A2B002AF78604FF001034FF00004C7E91E3400237B67CC
:2053200021233B672423FB660023BB662F4B07F140041D460FCD0FC40FCD0FC42B682380EE
:205340002B4B07F110041D460FCD0FC40FCD0FC495E80F0007C423700023FB6007F1400268
:205360007B6F009313463A6FD7E91E01FCF7D4F878667B6E13F1850F07D07B684FF48E72B4
:205380001C491D480FF0B6F92DE007F11003043307F10C0201920093FB6EBA6ED7E91E01AA
:2053A000FCF7E6F878667B6E002B07D07B684FF49272104911480FF09DF914E007F11003E3
:2053C0002D220F4918461BF0B7F90346002B07D07B684FF4957207490A480FF08BF902E08E
:2053E0007B6800221A708037BD46B0BD2C24120020251200602212008C241200B4241200FE
:20540000C8241200F824120080B582B000AF7860044A796804480FF063FA00BF0837BD469A
:2054200080BD00BF2D54100054221200B0B5A0B002AF78604FF003034FF00004C7E91C3491
:205440000023FB662123BB6600237B66694B07F138041D460FCD0FC40FCD0FC42B68238080
:20546000654B07F10C041D460FCD0FC40FCD0FC495E8070003C422800023BB6007F10C0381
:205480003B6607F13802FB6E00931346BA6ED7E91C01FCF741F8F865FB6D002B07D07B6809
:2054A00040F24512554956480FF024F99FE007F10C03043307F1080201920093BB6E7A6E15
:2054C000D7E91C01FCF754F8F865FB6D002B07D07B6840F24D1249494A480FF00BF986E0E8
:2054E00007F10C032A22484918461BF025F90346002B07D07B6840F25312404943480FF069
:20550000F9F874E007F10C032A223B4918461BF022F902237B66BA6E7B6ED31A023BBB6689
:2055200007F10C03043307F1080201920093BB6E7A6ED7E91C01FCF71BF8F865FB6D002B21
:2055400007D07B6840F261122C492E480FF0D2F84DE004222E49386E1BF0EEF80346002B63
:2055600007D07B6840F2671224492A480FF0C2F83DE03B6E04333B6607F138027B6E13441E
:20558000BA6E1946386E1BF0D7F80346002B07D07B684FF4B77219491F480FF0ABF826E0F9
:2055A0003A6EBB6E13443B6604221949386E1BF0C3F80346002B07D07B6840F275120F49EF
:2055C00016480FF097F812E0D7E91C01FCF722F8F865FB6D002B07D07B684FF4BE72074996
:2055E0000F480FF087F802E07B6800221A707837BD46B0BD2C241200BC251200602212005D
:2056000050251200B42412006425120090251200E8251200F02512001426120028261200C5
:205620005423120080B582B000AF7860044A796804480FF055F900BF0837BD4680BD00BF2E
:205640004956100054221200B0B5A0B002AF78604FF004034FF00004C7E91C340023FB66C8
:205660002123BB6600237B6600233B664D4B07F138041D460FCD0FC40FCD0FC42B6823803A
:20568000494B07F10C041D460FCD0FC40FCD0FC495E8070003C422800023BB6007F1380250
:2056A000FB6E00931346BA6ED7E91C01FBF734FFF865FB6D002B07D07B684FF4CB723B49BD
:2056C0003B480FF017F86AE007F10C03043307F10802019200937B6E3A6ED7E91C01FBF729
:2056E00047FFF865FB6D002B07D07B684FF4CF722E4930480EF0FEFF51E007F10C032A22C8
:20570000294918461BF018F80346002B07D07B684FF4D272254928480EF0ECFF3FE00523DB
:205720003B6607F10C03043307F10802019200937B6E3A6ED7E91C01FBF71AFFF865FB6D24
:20574000002B07D07B684FF4D77218491B480EF0D1FF24E007F10C032A22134918461AF02B
:20576000EBFF0346002B07D07B684FF4DA720F4911480EF0BFFF12E0D7E91C01FBF74AFF0B
:20578000F865FB6D002B07D07B6840F2BB1207490B480EF0AFFF02E07B6800221A707837F1
:2057A000BD46B0BD2C241200BC25120060221200502512005026120078261200B4241200E7
:2057C0005423120080B582B000AF7860044A796804480FF085F800BF0837BD4680BD00BF5E
:2057E000E957100054221200B0B596B002AF78604FF002034FF00004C7E9123401237B641D
:2058000000233B64364B07F110041D460FCD0FC40FCD0FC495E8070003C422800023FB600D
:2058200007F11003043307F10C02019200937B6C3A6CD7E91201FBF79BFEF863FB6B13F14A
:205840008C0F07D07B684FF4EA72264926480EF051FF42E007F110032A22214918461AF0DE
:205860006BFF0346002B07D07B684FF4ED721D491E480EF03FFF30E007F11003043307F19C
:205880000C02019200937B6C3A6C4FF000004FF00001FBF76DFEF863FB6B13F1870F07D039
:2058A0007B684FF4F1720F4911480EF023FF14E007F110032A220A4918461AF03DFF034603
:2058C000002B07D07B684FF4F472064907480EF011FF02E07B6800221A705037BD46B0BD26
:2058E000BC25120060221200A8261200CC261200F826120080B582B000AF7860044A7968F0
:2059000004480EF0EDFF00BF0837BD4680BD00BF1959100054221200B0B5A0B002AF78600C
:205920004FF003034FF00004C7E91C340023FB662123BB667A4B07F138041D460FCD0FC4EB
:205940000FCD0FC42B682380764B07F10C041D460FCD0FC40FCD0FC495E8070003C42280EB
:205960000023BB6007F13802FB6E00931346BA6ED7E91C01FBF7D0FD78667B6E002B07D0D5
:205980007B6840F20322684968480EF0B3FEC3E001233B66BB6E0133FB6507F10C0304335A
:2059A00007F10802019200933B6EFA6DD7E91C01FBF7DEFD78667B6E13F1870F07D07B68EA
:2059C00040F20E2258495A480EF094FEA4E007F10C032A22534918461AF0AEFE0346002B97
:2059E00007D07B684FF405724F4952480EF082FE92E0BB6E01333B660023FB6507F10C0389
:205A0000043307F10802019200933B6EFA6DD7E91C01FBF7ADFD78667B6E002B07D07B68F2
:205A20004FF40872404944480EF064FE74E0BB68BA6E9A4207D07B6840F225223A493F487C
:205A40000EF058FE68E007F10C032A223C4918461AF072FE0346002B07D07B6840F22B224D
:205A6000314934480EF046FE56E0BB6E3B660123FB6507F10C032A222A4918461AF06BFED3
:205A800007F10C03043307F10802019200933B6EFA6DD7E91C01FBF76BFD78667B6E002B67
:205AA00007D07B684FF40F721F4926480EF022FE32E0BA6EFB6DD21ABB689A4207D07B682D
:205AC00040F24222184920480EF014FE24E007F10C032A221D4918461AF02EFE0346002B92
:205AE00007D07B684FF412720F4912480EF002FE12E0D7E91C01FBF78DFD78667B6E002B38
:205B000007D07B6840F24F22074911480EF0F2FD02E07B6800221A707837BD46B0BD00BF43
:205B20002C241200BC251200602212005025120018271200782612004827120088271200B2
:205B400064251200BC2712000C281200602812005423120080B582B000AF7860044A79682F
:205B600004480EF0BDFE00BF0837BD4680BD00BF795B100054221200B0B594B002AF786085
:205B80004FF004034FF00004C7E910340023FB632123BB6300237B63274B07F10C041D46C7
:205BA0000FCD0FC40FCD0FC42B6823800023BB6007F10C02FB6B00931346BA6BD7E91001C5
:205BC000FBF7AAFC38633B6B002B07D07B6840F26B221A491A480EF08DFD29E007F10803EF
:205BE00001930023009300237A6BD7E91001FBF7BFFC38633B6B002B07D07B6840F27222E9
:205C00000E4910480EF076FD12E0D7E91001FBF701FD38633B6B002B07D07B6840F27922BE
:205C2000064909480EF066FD02E07B6800221A704837BD46B0BD00BF2C241200602212004E
:205C4000502512008C2812005423120080B582B000AF7860044A796804480EF041FE00BF09
:205C60000837BD4680BD00BF715C10005422120090B589B000AF78604FF001034FF00004F6
:205C8000C7E9063407F1080300221A605A609A6007F108031A46D7E90601FBF799FC78613D
:205CA0007B69002B07D07B6840F28D22104911480EF020FD18E0FB68242B07D07B6840F2D7
:205CC00093220B490C480EF015FD0DE03B69012B07D07B684FF42672054908480EF00AFD62
:205CE00002E07B6800221A702437BD4690BD00BF60221200C8281200F428120018291200B2
:205D000080B582B000AF7860044A796804480EF0E7FD00BF0837BD4680BD00BF255D1000A9
:205D200054221200B0B596B002AF78604FF002034FF00004C7E9123407F1300300221A6063
:205D40005A609A6000237B6421233B64304B07F10C041D460FCD0FC40FCD0FC42B68238030
:205D600007F10C027B6C009313463A6CD7E91201FBF7D2FBF863FB6B002B07D07B6840F23A
:205D8000AE22244924480EF0B5FC3DE007F130031A46D7E91201FBF71BFCF863FB6B002B3B
:205DA00007D07B6840F2B5221A491C480EF0A2FC2AE07B6B3A6C9A4207D07B6840F2BB2282
:205DC000144917480EF096FC1EE0BB6B7A6C9A4207D07B684FF430720E4912480EF08AFCBD
:205DE00012E0D7E91201FBF715FCF863FB6B002B07D07B6840F2C72206490B480EF07AFC04
:205E000002E07B6800221A705037BD46B0BD00BF2C24120060221200502512003C29120067
:205E200064291200842912005423120080B582B000AF7860044A796804480EF051FD00BF07
:205E40000837BD4680BD00BF515E10005422120090B589B000AF78604FF003034FF0000430
:205E6000C7E9063407F1080300221A605A609A6007F108031A46D7E90601FBF7A9FB78614C
:205E80007B6913F18C0F07D07B684FF43772264926480EF02FFC44E0FB68002B07D07B6867
:205EA00040F2E222204922480EF024FC39E03B69002B07D07B6840F2E7221B491D480EF017
:205EC00019FC2EE007F108031A464FF000004FF00001FBF77DFB78617B6913F1870F07D025
:205EE0007B6840F2EE22104913480EF003FC18E0FB68002B07D07B684FF43D720A490C48F3
:205F00000EF0F8FB0DE03B69002B07D07B6840F2F922054907480EF0EDFB02E07B68002263
:205F20001A702437BD4690BD60221200A4291200D0291200F0291200102A120080B582B0D0
:205F400000AF7860044A796804480EF0C9FC00BF0837BD4680BD00BF615F10005422120027
:205F6000B0B5A2B002AF78604FF002034FF00004C7E91E3407F15C0300221A605A609A60B1
:205F800000237B6721233B670023FB66404B07F138041D460FCD0FC40FCD0FC42B682380DC
:205FA0003C4B07F10C041D460FCD0FC40FCD0FC495E8070003C422800023BB6007F1380234
:205FC0007B6F009313463A6FD7E91E01FBF7A4FAB866BB6E002B07D07B6840F212322E49BA
:205FE0002E480EF087FB50E0D7E91E01FBF712FBB866BB6E002B07D07B6840F21932264985
:2060000027480EF077FB40E007F15C031A46D7E91E01FBF7DDFAB866BB6E13F18C0F07D065
:206020007B684FF448721C491E480EF063FB2CE007F10803019307F10C0300933B6FFA6E0A
:20604000D7E91E01FBF794FAB866BB6E13F18C0F07D07B6840F227320F4913480EF04AFBC0
:2060600013E0D7E91E01FBF7D5FAB866BB6E13F18C0F07D07B6840F22E3207490B480EF0BA
:2060800039FB02E07B6800221A708037BD46B0BD2C241200BC2512006022120050251200C4
:2060A00054231200402A1200702A1200982A120080B582B000AF7860044A796804480EF0F4
:2060C0000FFC00BF0837BD4680BD00BFD56010005422120090B587B000AF78604FF00103A5
:2060E0004FF00004C7E90434D7E90401FBF792FAF860FB6813F1850F07D07B6840F2413280
:20610000054906480EF0F6FA02E07B6800221A701C37BD4690BD00BF60221200C42A12008E
:2061200080B582B000AF7860044A796804480EF0D7FB00BF0837BD4680BD00BF4561100073
:206140005422120090B587B000AF78604FF000034FF00004C7E90434D7E90401FBF75AFA3C
:20616000F860FB6813F1870F07D07B684FF45572054906480EF0BEFA02E07B6800221A7043
:206180001C37BD4690BD00BF60221200F42A1200B0B592B002AF78604FF004034FF0000420
:2061A000C7E90E3400237B6321233B63124B07F108041D460FCD0FC40FCD0FC42B682380B2
:2061C00007F108027B6B009313463A6BD7E90E01FBF7A2F9F862FB6A002B07D07B6840F214
:2061E0006932064906480EF085FA02E07B6800221A704037BD46B0BD2C241200602212009C
:20620000202B1200B0B596B002AF78604FF004034FF00004C7E9123421237B6400233B6489
:206220001F4B07F110041D460FCD0FC40FCD0FC495E8070003C422800023FB6007F10C03B5
:20624000019307F1100300937B6C3A6CD7E91201FBF78EF9F863FB6B13F18C0F07D07B6819
:2062600040F27E320F4910480EF044FA14E007F110032A220A4918461AF05EFA0346002B7E
:2062800007D07B684FF46172064908480EF032FA02E07B6800221A705037BD46B0BD00BF3E
:2062A000BC251200602212004C2B12007C2B120090B587B000AF78604FF004034FF0000489
:2062C000C7E90434D7E90401FBF7A4F9F860FB68002B07D07B6840F29532054905480EF050
:2062E00009FA02E07B6800221A701C37BD4690BD60221200A02B120080B582B000AF786028
:206300000E4A79680E480EF0EBFA7B681B78002B0ED10C4A79680C480EF0E2FA7B681B78B0
:20632000002B07D1094A796805480EF0D9FA02E000BF00E000BF0837BD4680BD9161100047
:206340005422120005621000D02B1200B1621000B0B592B002AF78604FF002034FF0000457
:20636000C7E90E3400237B6321233B63124B07F108041D460FCD0FC40FCD0FC42B682380F0
:2063800007F108027B6B009313463A6BD7E90E01FBF7C2F8F862FB6A002B07D07B6840F233
:2063A000BB32064906480EF0A5F902E07B6800221A704037BD46B0BD2C2412006022120069
:2063C000202B120090B589B000AF78604FF002034FF00004C7E9063407F1080300221A604B
:2063E0005A609A6007F108031A46D7E90601FBF7EFF878617B6913F18C0F07D07B6840F29E
:20640000CD320C490C480EF075F910E0FB68002B02D13B69002B07D07B6840F2D332054909
:2064200006480EF067F902E07B6800221A702437BD4690BD60221200E02B1200182C12008D
:2064400090B587B000AF78604FF002034FF00004C7E90434D7E90401FBF7DCF8F860FB6884
:20646000002B07D07B684FF47972054905480EF041F902E07B6800221A701C37BD4690BD22
:2064800060221200A02B120080B582B000AF78600E4A79680E480EF023FA7B681B78002B52
:2064A0000ED10C4A79680C480EF01AFA7B681B78002B07D1094A796805480EF011FA02E07B
:2064C00000BF00E000BF0837BD4680BD5163100054221200C5631000D02B12004164100099
:2064E000B0B592B002AF78604FF003034FF00004C7E90E3400237B6321233B63124B07F1BA
:2065000008041D460FCD0FC40FCD0FC42B68238007F108027B6B009313463A6BD7E90E0130
:20652000FAF7FAFFF862FB6A002B07D07B6840F20A42064906480EF0DDF802E07B680022F8
:206540001A704037BD46B0BD2C24120060221200202B120090B587B000AF78604FF003032F
:206560004FF00004C7E90434D7E90401FBF752F8F860FB6813F18C0F07D07B6840F21B424C
:20658000054906480EF0B6F802E07B6800221A701C37BD4690BD00BF60221200382C1200D6
:2065A00090B587B000AF78604FF003034FF00004C7E90434D7E90401FBF72CF8F860FB68D2
:2065C000002B07D07B6840F22C42054905480EF091F802E07B6800221A701C37BD4690BD00
:2065E00060221200A02B120080B582B000AF78600E4A79680E480EF073F97B681B78002BA2
:206600000ED10C4A79680C480EF06AF97B681B78002B07D1094A796805480EF061F902E07B
:2066200000BF00E000BF0837BD4680BDE16410005422120055651000D02B1200A1651000B3
:2066400090B58DB002AF78604FF004034FF00004C7E908340023FB61104B07F108040FCB02
:2066600007C4238007F10802FB69009313460E22D7E90801FAF750FFB861BB69002B07D0E2
:206680007B6840F25142064906480EF033F802E07B6800221A702C37BD4690BD6C2C1200BE
:2066A00060221200D0221200B0B5A2B002AF78604FF004034FF00004C7E91E3407F15C0320
:2066C00000221A605A609A6000237B6721233B670023FB66664B07F138041D460FCD0FC404
:2066E0000FCD0FC42B682380624B07F10C041D460FCD0FC40FCD0FC495E8070003C4228052
:206700000023BB6007F10803019307F10C0300933B6FFA6ED7E91E01FAF72AFFB866BB6EB8
:2067200013F18C0F07D07B6840F26A42524953480DF0E0FF98E007F10C032A224D49184651
:2067400019F0FAFF0346002B07D07B684FF48E6249494B480DF0CEFF86E007F15C031A46CA
:20676000D7E91E01FAF734FFB866BB6E13F18C0F07D07B6840F276423F4942480DF0BAFFC4
:2067800072E03B6E002B02D17B6E002B07D07B6840F27C4238493C480DF0ACFF64E0D7E991
:2067A0001E01FAF737FFB866BB6E13F18C0F07D07B6840F28242304934480DF09BFF53E03E
:2067C00007F138027B6F009313463A6FD7E91E01FAF7A2FEB866BB6E002B07D07B6840F23A
:2067E000894225492A480DF085FF3DE007F10C03043307F10802019200933B6FFA6ED7E918
:206800001E01FAF7B5FEB866BB6E002B07D07B684FF4926218491F480DF06CFF24E007F126
:206820000C032A221C49184619F086FF0346002B07D07B6840F296420F4918480DF05AFF66
:2068400012E0D7E91E01FAF7E5FEB866BB6E002B07D07B6840F29D42074911480DF04AFF67
:2068600002E07B6800221A708037BD46B0BD00BF2C241200BC251200602212007C2C12001E
:206880007C2B1200A82C1200182C1200D82C1200D0221200042D1200642512009025120044
:2068A00054231200B0B59EB002AF78604FF004034FF00004C7E91A3407F14C0300221A60A9
:2068C0005A609A6000237B6600233B663C4B07F13C040FCB07C423803A4B07F110041D4641
:2068E0000FCD0FC40FCD0FC495E8070003C422800023FB600E23FB6507F14C031A46D7E9D7
:206900001A01FAF765FEB865BB6D002B07D07B6840F2B7422C492D480DF0ECFE4DE03B6D0D
